:020000040000FA
:10000000F8120020B5010000CF010000D10100006E
:1000100000000000000000000000000000000000E0
:10002000000000000000000000000000D3010000FC
:100030000000000000000000D5010000D701000012
:10004000D9010000D9010000E1070000D90100003A
:10005000D901000000000000D9010000D901000012
:100060008D070000D9010000D9010000D90100006E
:10007000D9010000D9010000D9010000D901000018
:10008000D9010000D9010000D9010000D901000008
:10009000D9010000D9010000D9010000D9010000F8
:1000A000D9010000D901000000000000000000009C
:1000B0000000000000000000000000000000000040
:1000C00000F002F800F04BF80CA030C808382418F3
:1000D0002D18A246671EAB4654465D46AC4201D180
:1000E00000F03DF87E460F3E0FCCB6460126334267
:1000F00000D0FB1AA246AB4633431847BC1B000096
:10010000DC1B0000103A02D378C878C1FAD8520735
:1001100001D330C830C101D504680C6070470000BD
:100120000023002400250026103A01D378C1FBD813
:10013000520700D330C100D50B60704710B5642959
:1001400002D100F097F810BD782902D100F0C8F86C
:1001500010BD002010BD1FB51FBD10B510BD00F0B3
:1001600027FA1146FFF7F7FF00F03CFE00F03FFAD8
:1001700003B4FFF7F2FF03BC00F044FA70B5054684
:100180000C46164602E00FCC0FC5103E102EFAD2D8
:10019000082E02D303CC03C5083E042E07D301CC9E
:1001A00001C5361F03E021782970641C6D1C761E82
:1001B000F9D270BD03210C4802680A4302600B4863
:1001C00002680A4302600A4880470A480047FEE77F
:1001D000FEE7FEE7FEE7FEE7FEE700000648074908
:1001E000074A084B704700002405004054050040B2
:1001F00025070000C1000000F8020020F8120020CE
:10020000F80A0020F80A00200FB4054910B503AA27
:10021000029800F089F910BC08BC04B0184700002F
:100220002400002070B5044685690068C10601D528
:10023000302600E02026C00707D070BD6268304637
:10024000A1689047206A401C20626D1EF6D570BDE3
:1002500070B5044685690078C00707D170BD626833
:10026000A16820209047206A401C20626D1EF6D5B0
:1002700070BD0000F7B5002575291068009914A617
:1002800011D0C046C046002802DA404211A608E05C
:10029000009909688A0701D50FA602E0490704D52D
:1002A0000EA6012501E0C046C046009F0024243769
:1002B00004E000F04DF930313955641C0028F8D1C4
:1002C0002B4632462146009800F0D5F8FEBD0000CE
:1002D000000000002D0000002B00000020000000A6
:1002E00070B504460D4621461068C046C0462188B8
:1002F000090502D50F4A7A4402E00E4A7A440E32CA
:1003000023460021243305E006070009360F965DD9
:100310005E54491C0028F7D120780023000705D53A
:10032000702D03D0002901D002231132204600F0A5
:10033000A2F870BD82190000F3B50446002081B018
:1003400020622046E168884700287DD0252802D019
:100350006268A16883E0454F00257F442046E1683C
:1003600088472028064608DB312E06D2B8192038E7
:100370000078002801D00543F0E7A80701D5042044
:1003800085430020E0610746A0612A2E0AD030464E
:1003900000F052FB002827D0B8000019303E009032
:1003A000866119E00298BA00121902C891610290A0
:1003B0002046E1688847012F064617D1E0690028EA
:1003C0001FDA202085431CE000980A2180694843F9
:1003D00000998019303888612046E16888470646D0
:1003E00000F02AFB0028EFD1012F0AD02E2E08D1D1
:1003F0002046E16888470646202005437F1C022FDF
:10040000C3DBA069002803DA4042A0610120054354
:10041000E80701D010208543002E24D03046413813
:10042000192803D80120C002054320362046256044
:100430003146029A1546FFF781FE00280CD00128AC
:1004400007D0ED1DE80800E00DE0C0000830029084
:1004500077E72D1D029574E762683046A1689047E2
:10046000206A401C6CE7206AFEBD000046190000AF
:10047000704770477047FFB504460D4681B0243081
:1004800000902168880604D51022E069914321601C
:1004900000E00120A84201DD471B00E0002704988E
:1004A000A1697A191018081AA0612078C00602D430
:1004B0002046FFF7B7FE002608E003986268A168AF
:1004C000805D9047206A401C761C2062049886421A
:1004D000F3DB2078C0060AD52046FFF7A3FE06E02E
:1004E0006268A16830209047206A401C206238462C
:1004F0007F1E0028F4DC07E000986268A168405D78
:100500009047206A401C206228466D1E0028F3DCBC
:100510002046FFF79DFE2078000602D5022005B098
:10052000F0BD0120FBE70000084B70B50D467B4491
:1005300000F027F80446284600F036F8002802D0DC
:100540000020C04370BD204670BD00003B08000085
:1005500001468008081A02091018020A1018020C35
:100560001018C008820012185200891A01E0401CBD
:100570000A390A29FBD2704701694A1C02610878CE
:10058000704700B58FB00291002105910549019394
:1005900079440391114604906846FFF7CDFE0FB0F1
:1005A00000BD0000E5FFFFFFC068802108407047E4
:1005B000754600F023F8AE46050069465346C0086C
:1005C000C000854618B020B5FFF708FE60BC0027C4
:1005D0004908B6460026C0C5C0C5C0C5C0C5C0C50F
:1005E000C0C5C0C5C0C5403D49008D4670470446E2
:1005F000C046C0462046FFF7BBFD000000487047DC
:100600009802002001491820ABBEFEE72600020038
:10061000704710B5152000F023FF10BD10B5152050
:1006200000F042FF10BD10B5162000F025FF10BDF0
:1006300010B5162000F038FF10BD10B5172000F0DF
:100640000FFF10BD10B5172000F02EFF10BD10B524
:10065000182000F011FF10BD10B5182000F024FF85
:1006600010BD10B5152000F0D3FE162000F0D0FE0E
:10067000172000F0CDFE182000F0CAFE042000F084
:10068000C7FE0C2000F0C4FEFFF7C3FFFFF7CBFF4F
:10069000FFF7D3FFFFF7DBFF10BD000010B5002808
:1006A00019DA1A4A03071B0F083B9B089B00D25814
:1006B0008307DC0EFF23A3409A438B071B0E84079E
:1006C000E40EA3401A43114B0407240F083CA4086E
:1006D000A4001A5118E00E4A03231B02D218830803
:1006E0009B00D2588307DC0EFF23A3409A438B075D
:1006F0001B0E8407E40EA3401A43054B0324240277
:100700001B198408A4001A5110BD00001CED00E064
:1007100000E100E001480249086070470024F4004D
:100720002C00002010B500F0CDFB002805D01148AA
:1007300011494860C8131149886100F0C5FB0028C1
:1007400002D001200E49886000F0C0FB00280ED0C6
:100750000C480068012807D00B480A49086000BF10
:10076000084800680128FBD1C02006494861FFF70E
:10077000D1FF10BDDFFF07C000050040006C004046
:100780000006004000EC06407593000010B50422FE
:100790000249034800F0F2FA10BD00008C0200206C
:1007A0000080004070B504460D4600BF00BF0B48F6
:1007B0000068401C094908602046FF38413800287D
:1007C00008D10321012000F015F80321022000F0D8
:1007D00011F800E000BF00BF70BD0000080000205D
:1007E00010B50249024801F079F910BD500200200D
:1007F0000020004070B505460C46012D02D0022DA8
:1008000020D10FE0002C03D1042000F029FE08E0E5
:10081000012C03D1042000F02FFE02E0042000F0A0
:1008200043FE10E0002C03D10C2000F019FE08E07C
:10083000012C03D10C2000F01FFE02E00C2000F080
:1008400033FE00E000BF00BF70BD10B500F05CFFDC
:1008500010BD00003EB5D0201D490870162048701C
:1008600001201C490870002301221949A02001F031
:1008700009F80446012306221549A12001F002F8D7
:100880000443002C1FD01248407911490979104ABD
:10089000D2780092019102900D48837842780178D5
:1008A0000DA0FFF7B1FC0A4800790002084B5B7904
:1008B000C218074840780002054B9B78C11814A065
:1008C000FFF7A2FC03E0214617A0FFF79DFC3EBD09
:1008D00030020020100000200A48455820203078BF
:1008E000253032582C203078253032582C20307862
:1008F000253032582C203078253032582C20307852
:10090000253032582C203078253032582C00000009
:10091000090944617461312C0925642C094461740E
:1009200061322C0925642C000A4932433A20457271
:10093000726F652C207477695F6D61737465725F87
:100940007472616E7366657228293B2072657475D6
:10095000726E2025642C000010B5FFF782FE00F0B7
:100960003DF800F003F8FFF770FF10BDF8B5002662
:1009700001241748174908600846002102681648F4
:1009800000F038FB00BF3746002F04D000BF3846C8
:1009900000F076F800BF00BF00BF0F4A11680522C3
:1009A00012028A18106900BF01467D22D2016243FB
:1009B000CA4000BF1546012003462A460021009088
:1009C000054800F0F7FA044800F0E4FAF8BD00002A
:1009D000A50700000C000020341C000030B58BB0CF
:1009E0001822114905A8FFF7C9FB00BF0F48019065
:1009F000FF20013002900E480390FF200130049048
:100A000003230C4A01A905A800F0AAF8044600BF78
:100A100000BF2546002D04D000BF284600F030F866
:100A200000BF00BF0BB030BD441C000030000020F0
:100A300030010020D919000030380A2801D20120E5
:100A4000704700207047000000BF00BF00BF00BF1C
:100A500000BFBFF34F8F00BF00BF00BF064807496C
:100A6000C86000BF00BF00BFBFF34F8F00BF00BF13
:100A700000BF00BF00BFFDE70400FA0500ED00E085
:100A80003EB50446002000900190029002946A4610
:100A900000210248FFF7D8FF3EBD000001400000E2
:100AA00070B504460D46204600F049F9002805D0EF
:100AB0002946204600F032F9002070BD0520FCE7F1
:100AC0000346002901D10E207047002A03D0501E92
:100AD0001040002801D00920F6E71960501E9880C8
:100AE00000209860D86000BFEEE770B504460D4660
:100AF000204600F024F9A188884205D829462046DE
:100B000000F02BF9002070BD0420FCE7F8B5044686
:100B10000F48077821460F48FFF7C2FF0090002FCB
:100B200013D000200A49087001220B490B4800F03D
:100B300019FB054600BF2E46002E04D000BF3046EC
:100B4000FFF79EFF00BF00BF00BF0098F8BD000088
:100B5000220000206C020020210000201400002050
:100B6000FFB589B004460D46174630480760002D92
:100B700002D107200DB0F0BDA88882B22C482968A8
:100B8000FFF79EFF064600BF002E01D03046F1E77A
:100B900000BFA88982B22748A968FFF791FF0646DF
:100BA00000BF002E01D03046E4E700BF20222249DA
:100BB00001A8FFF7E3FA60690790207C002801D0C4
:100BC000012000E000206946087608A90C9808700A
:100BD000607C002801D00E2000E0002069464876A5
:100BE000E0680390A068049020680290606801901B
:100BF000124A01A9124800F069FA064600BF002E09
:100C000001D03046B6E700BF00200E4908702068CA
:100C1000401C002808D00A4800F0DEFA01220A49E8
:100C2000074800F09FFAA5E70020A3E71C0000207A
:100C30006C0200207C0200205C1C0000011A0000F5
:100C400014000020220000202100002070B504467E
:100C500021460C48FFF749FF0546002D10D10A48F0
:100C600000F0A4FB00280BD108490648FFF718FF45
:100C7000002805D101220549034800F02FFB054655
:100C8000284670BD7C0200201400002020000020B7
:100C900070B505460C462068401C002805D0206829
:100CA00000F0F6FB206800F0CFFB6068401C0028D5
:100CB00003D00021606800F09EFB2868A16905222E
:100CC00012028218516200BF617D227D28680B46A6
:100CD0001343052636028619F36600BF6268216851
:100CE000286800F052FC207D012816D1A068401C25
:100CF000002803D00021A06800F07DFBE068401CC4
:100D0000002805D0E06800F0C3FBE06800F09CFB21
:100D1000A268E168286800F016FC70BD70B5044652
:100D20000D462A460021204600F00EF8A068401C1F
:100D3000A06070BD01468A68C868801A7047014685
:100D40008A68C868801A704710B583685B18848801
:100D500023400468E35C137010BDC26883881A40A6
:100D600003689954C268521CC260704770B504464B
:100D70000D46E0B2FFF76AFF204670BDF7B582B0BE
:100D800004460E46002728E0384600F0A4FB05463E
:100D9000384600F0A6FB0190204629464258002A1A
:100DA00001D0012200E00022002A14D00198032182
:100DB0000902611849680140002901D0012100E0C1
:100DC0000021002907D02946204600F08FFB284645
:100DD000326871689047781CC7B204988742D3DBA9
:100DE00005B0F0BD08B500BF1C4800681C4908608C
:100DF000FFF7B2FD1BA0FFF707FA1948016821A011
:100E0000FFF702FA25A0FFF7FFF925E02848006860
:100E10007D21C900884216D3002025490860254855
:100E20000068401C234908600846016822A0FFF7BB
:100E3000EBF9FFF7F3FBFFF7FBFBFFF703FCFFF713
:100E40000BFCFFF707FD6846FFF760FE002803D1A3
:100E500068460078FFF7FAFED8E70000000400407B
:100E6000000000200A0A4D4355205374617274201B
:100E700072756E6E696E672D2D2D2D2D2D2D2D3ECB
:100E80000A0000000A52657365745F536F757263E0
:100E900065203D2030782530385800000A486164CC
:100EA00020696E697469616C697A65642E0A000054
:100EB00008000020040000200A4D4C5F436E742C93
:100EC00025642C00002070470020704700207047E8
:100ED000002800D1704700BF00BF00BF00BF00BFA7
:100EE00000BF00BF00BF00BF07490968074A914221
:100EF00000D101E000BF00BF01460139084600D023
:100F0000EAE700BFE6E700002C0000200024F40020
:100F100070B504460D4629462046FFF7BFFB00BFCB
:100F2000E106C90E012088400549086000BF00BFE6
:100F3000E106C90E012088400249086000BF70BD6B
:100F400080E200E000E100E001460803020E50B23A
:100F5000704701460803020E50B27047F8B50546C7
:100F60000C4616461F46204600F0BBFA0090002FA4
:100F700004D02868009900F0C1FA03E028680099BD
:100F800000F0B7FA2B68A10015229201981846507C
:100F900000BFF8BD10B504460021206800F0BBFA80
:100FA000022120790C225043014A8018017210BDA1
:100FB0008C020020F8B505460E4617461C46FF2257
:100FC0000132B2400123B3401A431146286800F0B1
:100FD0009AFA286801214902095821430122520244
:100FE000115000BF3A4631462846069BFFF7B6FF30
:100FF000F8BD0000F7B582B004460D4620790C21FB
:10100000484331494618307A002803D0082738462B
:1010100005B0F0BD0498002802D107273846F7E74D
:101020000498306068687060002001900BE00198BF
:1010300000F051FA00902068009900F057FA0198EA
:10104000401CC0B20190617901988142EFDC2068B8
:10105000FFF77FFF0090E978FFF75AFF6978206873
:10106000052212028218526852085200CB07DB0F89
:101070001A4305231B02C3185A6000BFA9782068D1
:101080000522120282189268920892008B079B0F29
:101090001A4305231B02C3189A6000BF29782068F1
:1010A0000522120282181269120912010B071B0F86
:1010B0001A4305231B02C3181A6100BF01203072B6
:1010C00000273846A4E700008C020020FEB5054644
:1010D0000E46174628791C21484320494418002011
:1010E0000290E07E002803D0082002900298FEBD06
:1010F00031462846FFF7CCFD6760306920606068A4
:10110000002818D0307F0190FF211D31286800F0A1
:1011100017FAFF214531286800F012FA10492868B3
:1011200000F01FFA2868FFF70FFF00900199FFF702
:10113000EFFE00BF00BF00BF286804210522120295
:101140008218116000BF00BF0020E0752076A075F6
:101150000120E0760020A0760298C8E75002002027
:1011600080000200FEB505460E46174628791C2170
:10117000484318494418002000906068002804D0B3
:1011800081218900286800F0E7F9E07D002810D06F
:10119000207E00280BD06068002804D081218900BF
:1011A000286800F0DEF9112001900198FEBD0120B1
:1011B00000900098002804D1E775E66060762076FC
:1011C00001E0266127763A4631462846009B00F02A
:1011D0001BF8EBE75002002010B5044620791C21D3
:1011E000484308494018807E002809D1204600F075
:1011F00007FA012120791C225043024A8018817687
:1012000010BD000050020020FFB583B004462079D5
:101210001C21484330494518A87E002805D106986E
:10122000002802D1204600F0EBF9686800284AD176
:10123000FF214531206800F083F900BF00BFFF2186
:101240002531206800F074F90190FF2109312068F0
:1012500000F06EF90290FF214531206800F068F936
:1012600006460298002804D1002E02D101980028D9
:10127000E5D00198002801D1002E00D007E02946D2
:10128000206800F08BF9E87D697E8842D6DC00BFDB
:101290000020E8750198002803D00327384607B0DE
:1012A000F0BD002E02D00F273846F8E7A87E0028B0
:1012B00004D00021206800F065F903E004212068D3
:1012C00000F060F904E081218900206800F049F90C
:1012D00000273846E3E7000050020020F8B5054635
:1012E0000E46174628791C214843094944182846C8
:1012F00000F05CF8002803D0112000900098F8BDA1
:10130000A775A6600020A082284600F003F8F6E743
:101310005002002070B5044620791C214843224920
:1013200045180026FF211D31206800F009F9082129
:10133000206800F027F92946206800F027FB68683C
:1013400000282FD115E000BFFF211D31206800F0DB
:10135000EFF8002804D1A88AFF2101318842F3D197
:10136000A88AFF210131884203D02946206800F075
:101370000DFBA88AA97D8842E5DBA88AFF210131FF
:10138000884201D10F260BE000BFFF211D312068EC
:1013900000F0CEF80028F8D00C21206800F0F2F818
:1013A0000020A875304670BD500200200146087923
:1013B0001C225043044A8018807D002801D001205F
:1013C00070470020FCE7000050020020F0B500BF8D
:1013D00005252D072C4655000D439E003543059EDF
:1013E00036023543069E36043543860007273F0202
:1013F000E719BD51F0BD7CB505460C4600200090B4
:1014000023460246014601902846FFF7DFFF7CBDD8
:10141000FEB501210A4600230193029300BF052473
:101420002407009454000C439D002C43019D2D0281
:101430002C43029D2D042C43860007273F02009D6C
:10144000ED19AC5100BFFEBD1CB504460020009054
:1014500003460122114601902046FFF7B7FF1CBD4D
:1014600000BF052109070A460121814005231B020F
:10147000D318D96000BF704700BF052109070A468D
:101480000121814005231B02D318996000BF7047DA
:1014900000BF052109070A460121814005231B02DF
:1014A000D318996000BF704710B500BF05231B0714
:1014B00019461B15CB185A68012383409343052412
:1014C00024020C19A3600123834013400524240245
:1014D0000C19E36010BD01468800FF30413080B236
:1014E00070470146012000048840704700224250A6
:1014F0007047032212028218916070470322120281
:101500008218516070470122520212588A43012307
:101510005B021A507047012242507047014609226F
:10152000D2018A1810680922D2018A181060704707
:1015300002465058002801D0012070470020FCE7E7
:1015400000224250704705231B02C31899600523EF
:101550001B02C3181A61704703221202821891609D
:10156000704703221202821851607047024603201E
:101570000002101840680840002801D00120704780
:101580000020FCE701224250704705231B02C318CC
:101590005A6105231B02C318D960704770B5054610
:1015A0000C46E07D00280AD1FF2109312846FFF7CB
:1015B000C7FF00BF052000022818806970BDFF2109
:1015C00009312846FFF7BCFF00BF0520000228189C
:1015D0008069C0B2627EE1688854607E401C60769B
:1015E00000BFEBE77FB504460D461646012069466D
:1015F00008706846057201966268216890477FBD51
:1016000010B50446FF2125312068FFF799FFFF211F
:1016100009312068FFF794FF00212068FFF7B2FF2F
:1016200010BD0000F8B53548056800203349086052
:101630000805072109024018466C314805210907B1
:101640000722120289184864052000071146401835
:10165000806C00902A48052109078918886400BF1A
:10166000012080042749886000BF00BF40108860C7
:1016700000BF0420FFF72CFC224800694003C00F84
:10168000002807D01F4800698003C00F002801D040
:10169000012422E00024122719E000BF01204004A9
:1016A0001849C86000BF0420FFF712FC00BF0120EA
:1016B00040041449886000BF0420FFF709FC11486A
:1016C00000694003C00F002801D0012403E0384620
:1016D0007F1E0028E1D100BF00BF052000070721C1
:1016E00009024018466405210907072212028918D9
:1016F00000988864014805602046F8BD0045004018
:101700000D0600000005005010B515480521090719
:10171000072212028918486405210907891888647C
:10172000002010498860C86111200F49886012208C
:10173000C8603320C00448620A4838300B49086149
:101740000848E4380A4951221201891848600120EA
:1017500006498860052004490860FFF763FF10BD53
:101760000C060000004100400045004000F501402B
:1017700000F00140F8B505460C4617463B4E002CDC
:1017800001D10020F8BD012C06D139483949512238
:1017900012018918486006E0354808303549512261
:1017A00012018918486001203349486000203049FF
:1017B000EC31886001202E491439086045E000BFF3
:1017C0002B48EC308068002807D12948EC30406A6B
:1017D000002802D1701E0600F2D100202449EC310D
:1017E0008860002E03D00846406A002814D00020EC
:1017F0001F49EC314862214908602149C86305202E
:10180000FFF766FB01201E49C86305201B490860DD
:10181000FFF77AFF0020B5E71848806928706D1C33
:10182000601EC0B20446012805D111481149512259
:10183000120189184860002C00D107E01420FFF73E
:1018400047FB01200A4914390862B8E700BF00BF0E
:101850000748EC3040680028FAD000200449EC31F9
:10186000486001200449886000BF8BE7204E0000DB
:101870001440004000F0014000F5014000450040E8
:10188000C04F0040F8B504460E4615461F460020DE
:101890000090002D17DDFFF7C5FE002813D0601063
:1018A0000A498860E007C00F002806D03A4629465A
:1018B0003046FFF75FFF009005E03A462946304684
:1018C00000F006F800900098F8BD00008045004048
:1018D000F8B504460D461646274F002D01D10020CD
:1018E000F8BD20782549C861641C0120244988601E
:1018F00031E000BF2348C069002806D12148406A72
:10190000002802D1781E0700F4D1002F03D01D4813
:10191000406A002813D000201A494862174908601D
:101920001949C8630520FFF7D3FA01201649C86397
:10193000052012490860FFF7E7FE0020D0E70020ED
:101940001049C861681EC0B2050000D104E02078CB
:101950000A49C861641CCCE700BF002E0AD00020F1
:101960000849486001200649486100BF05484068B1
:101970000028FBD00120B3E7204E000000450040C6
:101980000040004000410040C04F004070B5054697
:101990000C46FF211D312846FFF7D2FDA18AA06821
:1019A000465CA08A401CA0823046052109026918C5
:1019B000C86100BF70BD7FB504460D460020694672
:1019C000087068460572A06801900020A0756846FE
:1019D0006268216890477FBD10B5044620780228D0
:1019E00004D100BF6068FFF74BF807E020780128BA
:1019F00004D100BF6068FFF743F800BF10BD0000CE
:101A00007CB504460E462078002841D0012802D03B
:101A1000022851D12DE0606801782948FFF765F868
:101A20000546002D08D001206946087001956846DA
:101A30002449096888470BE02148FFF77BF9002813
:101A400006D000206946087068461E490968884724
:101A50001B48FFF76FF91A498988884205D8012287
:101A600019491A48FFF77EFB02E001201849087067
:101A700023E0022069460870E068019001221249C3
:101A80001248FFF76FFB68460E490968884714E063
:101A900010491148FFF704F8002805D101220D492B
:101AA0000A48FFF71BFC06E00320694608706846F9
:101AB00004490968884700E000BF00BF7CBD000002
:101AC0006C0200201C0000202100002014000020D7
:101AD00022000020200000207C020020F0B585B00C
:101AE00005460C46012149022846FFF73FFD002824
:101AF0002BD0FF2125312846FFF71AFD002824D0DE
:101B0000FF2125312846FFF71BFD8121890028464A
:101B1000FFF722FDA07E002803D104212846FFF70D
:101B200031FD0220694608702846FFF7F7FC039054
:101B3000E17D68460172E06801900020E075207642
:101B4000684662682168904739E004212846FFF71B
:101B50000DFD002833D0FF2109312846FFF7E8FCAE
:101B600000282CD021462846FFF718FDE07D617E35
:101B7000884224D1207E00280ED0E668677E207E31
:101B8000E0752069E06000202076607632463946B4
:101B90002046FFF727FD12E0A07E002803D1042194
:101BA0002846FFF7EFFC812189002846FFF7D4FC87
:101BB0000020E075617EE2682046FFF713FDFF21FB
:101BC0001D312846FFF7B4FC002814D0A08AA17D5F
:101BD000884204DA21462846FFF7D8FE0BE0FF21B1
:101BE0001D312846FFF7ACFCA07D002803D0A17D65
:101BF0002046FFF7E0FEFF2145312846FFF798FC1D
:101C0000002815D0FF2145312846FFF799FCA07E1A
:101C1000002803D000212846FFF7B4FCE07D00280F
:101C200006D00020E075617EE2682046FFF7DAFC0E
:101C300005B0F0BD0080004000000000000000037F
:101C4000000000000B000000090000000A00000076
:101C5000080000000000000000E0D701FFFFFFFFC8
:101C6000FFFFFFFFFFFFFFFFFFFFFFFF0000000080
:101C70000000000000E0D7010300000030313233E3
:101C800034353637383941424344454640305800B0
:101C900030313233343536373839616263646566E2
:101CA000403078000400000800000000000000023E
:101CB0000001000010000000D81C000000000020FF
:101CC0003000000004010000081D0000300000206A
:101CD000C812000020010000000000000000000009
:101CE0000000000000000000000000000020004094
:101CF00000000000000000000000000000000000E4
:081D0000000000000024F400C3
:04000005000000C136
:00000001FF
