:020000040000FA
:10000000680A0020D5000000EF000000F1000000A9
:1000100000000000000000000000000000000000E0
:10002000000000000000000000000000F3000000DD
:100030000000000000000000F5000000F7000000D4
:10004000F9000000F900000055030000F90000006D
:10005000F900000000000000F9000000F9000000B5
:10006000F9000000F9000000F9000000F9000000AC
:10007000F9000000F9000000F9000000F90000009C
:10008000F9000000F9000000F9000000F90000008C
:10009000F9000000F9000000F9000000F90000007C
:1000A000F9000000F900000000000000000000005E
:1000B0000000000000000000000000000000000040
:1000C0000348854600F064F800480047C90B00006B
:1000D000680A00200321094802680A4302600848B0
:1000E00002680A4302600748804707480047FEE766
:1000F000FEE7FEE7FEE7FEE7FEE70000240500401E
:1001000054050040ED020000C100000003460B430F
:100110009B0703D009E008C9121F08C0042AFAD2BD
:1001200003E00B780370401C491C521EF9D2704743
:10013000F0B51FB40646002082B005464024019168
:1001400000901BE0019922460F46304600F042F82D
:10015000049A059B801A994110D3104619462246ED
:1001600000F028F8361A8F4101972246012000211D
:10017000009F00F01FF838184D4100902046641E83
:100180000028DFDC019B00982946324607B0F0BD0D
:10019000064C0125064E05E0E36807CC2B430C3CDA
:1001A00098471034B442F7D3FFF78EFF0C150000C8
:1001B0002C15000010B5202A04DB0146203A91409E
:1001C000002010BD914020239C1A0346E3401943B0
:1001D000904010BD10B5202A04DB0846203AD040DC
:1001E000002110BD0B46D340D0402024A21A9140DC
:1001F0000843194610BD10B5152000F059FF10BD79
:1002000010B5152000F078FF10BD10B5162000F0D5
:100210005BFF10BD10B5162000F06EFF10BD10B5CD
:10022000172000F045FF10BD10B5172000F064FF47
:1002300010BD10B5182000F047FF10BD10B51820F4
:1002400000F05AFF10BD10B5152000F009FF162070
:1002500000F006FF172000F003FF182000F000FF59
:1002600010BD000010B5002819DA1A4A03071B0F49
:10027000083B9B089B00D2588307DC0EFF23A3405A
:100280009A438B071B0E8407E40EA3401A43114BBD
:100290000407240F083CA408A4001A5118E00E4AD1
:1002A00003231B02D21883089B00D2588307DC0E5D
:1002B000FF23A3409A438B071B0E8407E40EA34041
:1002C0001A43054B032424021B198408A4001A5165
:1002D00010BD00001CED00E000E100E00148024913
:1002E000086070470024F4002400002010B500F0DE
:1002F000EDFC002805D0114811494860C813114988
:10030000886100F0E5FC002802D001200E498860D9
:1003100000F0E0FC00280ED00C480068012807D04F
:100320000B480A49086000BF084800680128FBD153
:10033000C02006494861FFF7D1FF10BDDFFF07C0AD
:1003400000050040006C00400006004000EC064044
:100350007593000010B50249024801F00FF810BD76
:10036000280200200020004010B5FFF76CFFFFF7C7
:1003700042FFFFF74AFFFFF752FFFFF75AFF00F077
:1003800001F810BD30B58BB01822114905A8FFF750
:10039000BDFE00BF0F480190FF20013002900E48C3
:1003A0000390FF200130049003230C4A01A905A803
:1003B00000F0FCFA044600BF00BF2546002D04D023
:1003C00000BF284600F082FA00BF00BF0BB030BD6E
:1003D000D414000028000020280100207912000019
:1003E0000FB410B503A9044B044A029800F018F8A2
:1003F00010BC08BC04B01847B90B00001C0000205A
:1004000002E008C8121F08C1002AFAD170477047DD
:10041000002001E001C1121F002AFBD1704700003B
:10042000FFB591B00F460546002606E025280AD004
:10043000149A139990476D1C761C28780028F5D1E2
:10044000304615B0F0BD002400940121F34A029417
:1004500000E004436D1C2B780846203B9840104276
:10046000F7D128782A280ED0022128780246303A7F
:10047000092A15D8009A0A235A43303A80180C43A7
:100480006D1C0090F1E701CF0090002805DA0120F3
:1004900040030443009840420090022004436D1C36
:1004A00028782E2815D10420044368786D1C2A284A
:1004B0000AD101CF6D1C02900BE002990A22514330
:1004C000303940186D1C02902878014630390929CE
:1004D000F3D928786C2810D006DC4C281AD068286C
:1004E0000ED06A2817D104E0742813D07A2812D1CC
:1004F00010E00120400504430CE00121090501E062
:10050000032109050C436978814203D101200005CC
:1005100024186D1C6D1C287803906E281ED00CDCEE
:10052000632831D004DC00288AD0582811D1B2E0E9
:1005300064287BD069280CD178E073282DD004DCA6
:100540006F2870D0702804D1A7E075286CD0782867
:100550006BD0149A13999047761C62E06002400FAA
:10056000022807D003280AD0042838680AD0066079
:100570003F1D56E03868F11706604160F8E73868BB
:100580000680F5E70670F3E73878694608740020BE
:10059000487404A80390012003E038680390002009
:1005A000C0433F1D61070FD5002101E00199491C9F
:1005B000029A0191914213DA8142F7DB019A039981
:1005C000895C0029F2D10BE0002101E00199491C6E
:1005D00001918142FADB019A0399895C0029F5D1E6
:1005E00001990098139A401A00902146149B00F03C
:1005F0003BF901998019461807E0039803990078A0
:10060000491C0391149A139990470198401E019038
:10061000401CF2D12146149B139A009800F014F963
:1006200086196D1C09E741E033E034E00A2000211F
:10063000049005916002410F022905D001CFC21735
:100640009446032905D007E0FF1DFF08FF0003CFF4
:1006500006E000B2C2179446042902D140B2C11785
:100660008C4600226146944506DA0A460021404243
:1006700091418C462D2102E0210504D52B216A46AB
:100680001176012103E0E10701D02021F7E7019174
:1006900054E00A200BE0102009E010200490002113
:1006A0000420044308200591029003E00820002163
:1006B000059104906002410F022905D001CF00226C
:1006C0009446032906D006E0FF1DFF08FF0003CF74
:1006D0008C4603E080B2042900D1C0B20021019110
:1006E00021072BD50399702906D0049A1021059B68
:1006F0004A401A4305D00EE040216A461176012196
:1007000008E06146014306D030216A46117603991C
:10071000517602210191049A0821059B4A401A430F
:100720000CD16146014301D1610707D530216A46EA
:100730001176012101910299491E029103995829CC
:1007400004D037A103910FA90F910DE039A1F9E76A
:100750006146059B049AFFF7EBFC039B8C469B5C70
:100760000F9A521E0F92137061460143F0D10F98F9
:1007700007A9081A20300390600704D5012000045F
:100780008443029801E0012002900399884201DD30
:10079000401A00E0002041180290019809180098C2
:1007A000401A0090E00306D42146149B139A009847
:1007B00000F05AF886190020049008E006A9085CA9
:1007C000149A139990470498401C761C0490019940
:1007D0008842F3DBE0030CD52146149B139A009862
:1007E00000F042F8861904E0149A302013999047DB
:1007F000761C0299481E02900029F5DC08E00F984B
:100800000F990078491C0F91149A13999047761C00
:100810000399481E03900029F1DCFBE6092801003A
:100820003031323334353637383961626364656666
:100830000000000030313233343536373839414228
:100840004344454600000000F8B5044600251E4616
:100850001746880404D405E039462020B0476D1CB3
:10086000641EF9D52846F8BDFFB50446002581B0C1
:100870001E46C80301D5302700E02027880404D590
:1008800005E038460399B0476D1C641EF9D528462B
:1008900005B0F0BD00BF00BF00BF00BF00BFBFF389
:1008A0004F8F00BF00BF00BF06480749C86000BFA8
:1008B00000BF00BFBFF34F8F00BF00BF00BF00BF2E
:1008C00000BFFDE70400FA0500ED00E03EB5044678
:1008D000002000900190029002946A460021024894
:1008E000FFF7D8FF3EBD00000140000070B5044690
:1008F0000D46204600F049F9002805D0294620463B
:1009000000F032F9002070BD0520FCE70346002905
:1009100001D10E207047002A03D0501E104000283D
:1009200001D00920F6E71960501E988000209860D9
:10093000D86000BFEEE770B504460D46204600F0D3
:1009400024F9A188884205D82946204600F02BF9D1
:10095000002070BD0420FCE7F8B504460F48077876
:1009600021460F48FFF7C2FF0090002F13D0002050
:100970000A49087001220B490B4800F01BFA054692
:1009800000BF2E46002E04D000BF3046FFF79EFF6A
:1009900000BF00BF00BF0098F8BD00001A00002093
:1009A00044020020190000200C000020FFB589B08F
:1009B00004460D46174630480760002D02D1072037
:1009C0000DB0F0BDA88882B22C482968FFF79EFFC1
:1009D000064600BF002E01D03046F1E700BFA889CF
:1009E00082B22748A968FFF791FF064600BF002E94
:1009F00001D03046E4E700BF2022224901A8FFF7DA
:100A000085FB60690790207C002801D0012000E070
:100A100000206946087608A90C980870607C0028B8
:100A200001D00E2000E0002069464876E06803907F
:100A3000A06804902068029060680190124A01A9A1
:100A4000124800F06BF9064600BF002E01D0304678
:100A5000B6E700BF00200E4908702068401C00283F
:100A600008D00A4800F0E0F901220A49074800F0DE
:100A7000A1F9A5E70020A3E714000020440200200C
:100A800054020020EC140000A11200000C00002011
:100A90001A0000201900002070B5044621460C48B9
:100AA000FFF749FF0546002D10D10A4800F0A6FACD
:100AB00000280BD108490648FFF718FF002805D188
:100AC00001220549034800F031FA0546284670BD69
:100AD000540200200C0000201800002070B50546CC
:100AE0000C462068401C002805D0206800F0F8FA69
:100AF000206800F0D1FA6068401C002803D0002173
:100B0000606800F0A0FA2868A16905221202821824
:100B1000516200BF617D227D28680B461343052684
:100B200036028619F36600BF62682168286800F003
:100B300031FB207D012816D1A068401C002803D07D
:100B40000021A06800F07FFAE068401C002805D072
:100B5000E06800F0C5FAE06800F09EFAA268E1687B
:100B6000286800F0F5FA70BD70B504460D462A46B7
:100B70000021204600F00EF8A068401CA06070BD67
:100B800001468A68C868801A704701468A68C86842
:100B9000801A704710B583685B1884882340046806
:100BA000E35C137010BDC26883881A4003689954CF
:100BB000C268521CC260704770B504460D46E0B270
:100BC000FFF76AFF204670BD08B500BF19480068EE
:100BD00019490860FFF7C8FB18A0FFF701FC164889
:100BE00001681EA0FFF7FCFB2248016822A0FFF766
:100BF000F7FB2848016828A0FFF7F2FB2EA0FFF7BB
:100C0000EFFB15E01B480068401C1A490860FFF71D
:100C1000F7FAFFF7FFFAFFF707FBFFF70FFB68464E
:100C2000FFF79AFE002803D168460078FFF734FFEB
:100C3000E8E7000000040040000000200A0A4D43DD
:100C4000552053746172742072756E6E696E672DD3
:100C50002D2D2D2D2D2D2D3E0A0000000A526573DD
:100C600065745F536F75726365203D203078253061
:100C700038580000040000200A4D61696E4C6F6F07
:100C8000705F436E74203D204D4C5F436E74203D79
:100C900020256400080000200A54696D65537461C2
:100CA0006D705F436E74203D2054535F436E74201B
:100CB0003D2025640A0000000A48616420696E69CD
:100CC0007469616C697A65642E0A000000207047BF
:100CD000002070470020704770B504460D46294635
:100CE0002046FFF7BFFA00BFE106C90E0120884089
:100CF0000549086000BF00BFE106C90E0120884019
:100D00000249086000BF70BD80E200E000E100E041
:100D100001460803020E50B270470000FEB50546BA
:100D20000E46174628791C214843204944180020C4
:100D30000290E07E002803D0082002900298FEBDB9
:100D400031462846FFF7CAFE676030692060606858
:100D5000002818D0307F0190FF211D31286800F055
:100D6000F4F9FF214531286800F0EFF910492868AF
:100D700000F0FCF92868FFF7CBFF00900199FFF71E
:100D8000ABFF00BF00BF00BF28680421052212028C
:100D90008218116000BF00BF0020E0752076A075AA
:100DA0000120E0760020A0760298C8E72802002003
:100DB00080000200FEB505460E46174628791C2124
:100DC000484318494418002000906068002804D067
:100DD00081218900286800F0C4F9E07D002810D046
:100DE000207E00280BD06068002804D08121890073
:100DF000286800F0BBF9112001900198FEBD012088
:100E000000900098002804D1E775E66060762076AF
:100E100001E0266127763A4631462846009B00F0DD
:100E20001BF8EBE72802002010B5044620791C21AE
:100E3000484308494018807E002809D1204600F028
:100E4000E4F9012120791C225043024A801881765E
:100E500010BD000028020020FFB583B004462079B1
:100E60001C21484330494518A87E002805D1069822
:100E7000002802D1204600F0C8F9686800284AD14D
:100E8000FF214531206800F060F900BF00BFFF215D
:100E90002531206800F051F90190FF2109312068C7
:100EA00000F04BF90290FF214531206800F045F930
:100EB00006460298002804D1002E02D1019800288D
:100EC000E5D00198002801D1002E00D007E0294686
:100ED000206800F068F9E87D697E8842D6DC00BFB2
:100EE0000020E8750198002803D00327384607B092
:100EF000F0BD002E02D00F273846F8E7A87E002864
:100F000004D00021206800F042F903E004212068A9
:100F100000F03DF904E081218900206800F026F905
:100F200000273846E3E7000028020020F8B5054610
:100F30000E46174628791C2148430949441828467B
:100F400000F05CF8002803D0112000900098F8BD54
:100F5000A775A6600020A082284600F003F8F6E7F7
:100F60002802002070B5044620791C2148432249FC
:100F700045180026FF211D31206800F0E6F8082101
:100F8000206800F004F92946206800F04FF96868ED
:100F900000282FD115E000BFFF211D31206800F08F
:100FA000CCF8002804D1A88AFF2101318842F3D16E
:100FB000A88AFF210131884203D02946206800F029
:100FC00035F9A88AA97D8842E5DBA88AFF2101318D
:100FD000884201D10F260BE000BFFF211D312068A0
:100FE00000F0ABF80028F8D00C21206800F0CFF812
:100FF0000020A875304670BD2802002001460879FF
:101000001C225043044A8018807D002801D0012012
:1010100070470020FCE7000028020020F0B500BF68
:1010200005252D072C4655000D439E003543059E92
:1010300036023543069E36043543860007273F02B5
:10104000E719BD51F0BD7CB505460C460020009067
:1010500023460246014601902846FFF7DFFF7CBD8C
:10106000FEB501210A4600230193029300BF052427
:101070002407009454000C439D002C43019D2D0235
:101080002C43029D2D042C43860007273F02009D20
:10109000ED19AC5100BFFEBD1CB504460020009008
:1010A00003460122114601902046FFF7B7FF1CBD01
:1010B00000BF052109070A460121814005231B02C3
:1010C000D318D96000BF704700BF052109070A4641
:1010D0000121814005231B02D318996000BF70478E
:1010E00000BF052109070A460121814005231B0293
:1010F000D318996000BF704710B500BF05231B07C8
:1011000019461B15CB185A680123834093430524C5
:1011100024020C19A36001238340134005242402F8
:101120000C19E36010BD01460922D2018A1810682B
:101130000922D2018A1810607047024650580028D0
:1011400001D0012070470020FCE700224250704788
:1011500005231B02C318996005231B02C3181A61DB
:101160007047032212028218916070470322120214
:101170008218516070470246032000021018406830
:101180000840002801D0012070470020FCE7012220
:101190004250704705231B02C3185A6105231B02E6
:1011A000C318D960704770B505460C46E07D00282D
:1011B0000AD1FF2109312846FFF7C7FF00BF0520EC
:1011C00000022818806970BDFF2109312846FFF709
:1011D000BCFF00BF0520000228188069C0B2627EF3
:1011E000E1688854607E401C607600BFEBE77FB505
:1011F00004460D4616460120694608706846057289
:1012000001966268216890477FBD10B50446FF21B2
:1012100025312068FFF799FFFF2109312068FFF78A
:1012200094FF00212068FFF7B2FF10BD70B505469E
:101230000C46FF211D312846FFF787FFA18AA068D1
:10124000465CA08A401CA08230460521090269182C
:10125000C86100BF70BD7FB504460D4600206946D9
:10126000087068460572A06801900020A075684665
:101270006268216890477FBD10B504462078022837
:1012800004D100BF6068FFF721FB07E02078012848
:1012900004D100BF6068FFF719FB00BF10BD00005C
:1012A0007CB504460E462078002841D0012802D0A3
:1012B000022851D12DE0606801782948FFF73BFBF7
:1012C0000546002D08D00120694608700195684642
:1012D0002449096888470BE02148FFF751FC0028A2
:1012E00006D000206946087068461E49096888478C
:1012F0001B48FFF745FC1A498988884205D8012216
:1013000019491A48FFF756FD02E0012018490870F4
:1013100023E0022069460870E0680190012212492A
:101320001248FFF747FD68460E490968884714E0F0
:1013300010491148FFF7DAFA002805D101220D49BA
:101340000A48FFF7F3FD06E0032069460870684687
:1013500004490968884700E000BF00BF7CBD000069
:101360004402002014000020190000200C0000207E
:101370001A0000201800002054020020F0B585B0AB
:1013800005460C46012149022846FFF7F4FE0028D5
:101390002BD0FF2125312846FFF7CFFE002824D08F
:1013A000FF2125312846FFF7D0FE812189002846FC
:1013B000FFF7D7FEA07E002803D104212846FFF7BF
:1013C000E6FE0220694608702846FFF7ACFE03904F
:1013D000E17D68460172E06801900020E0752076AA
:1013E000684662682168904739E004212846FFF783
:1013F000C2FE002833D0FF2109312846FFF79DFEA9
:1014000000282CD021462846FFF7CDFEE07D617EE6
:10141000884224D1207E00280ED0E668677E207E98
:10142000E0752069E060002020766076324639461B
:101430002046FFF7DCFE12E0A07E002803D1042145
:101440002846FFF7A4FE812189002846FFF789FE80
:101450000020E075617EE2682046FFF7C8FEFF21AC
:101460001D312846FFF769FE002814D0A08AA17D0F
:10147000884204DA21462846FFF7D8FE0BE0FF2118
:101480001D312846FFF761FEA07D002803D0A17D15
:101490002046FFF7E0FEFF2145312846FFF74DFECD
:1014A000002815D0FF2145312846FFF74EFEA07ECB
:1014B000002803D000212846FFF769FEE07D0028C0
:1014C00006D00020E075617EE2682046FFF78FFEBF
:1014D00005B0F0BD0B000000090000000A0000008C
:1014E000080000000000000000E0D701FFFFFFFF40
:1014F000FFFFFFFFFFFFFFFFFFFFFFFF00000000F8
:101500000000000000E0D701030000002C150000DF
:101510000000002028000000000400005415000016
:1015200028000020400A0000100400000000000015
:10153000000000000000000000200040000000004B
:10154000000000000000000000000000000000009B
:041550000024F4007F
:04000005000000C136
:00000001FF
