:020000040000FA
:10000000E0130020B5010000CF010000D101000085
:1000100000000000000000000000000000000000E0
:10002000000000000000000000000000D3010000FC
:100030000000000000000000D5010000D701000012
:10004000D9010000D90100002D080000D9010000ED
:10005000D901000000000000D9010000D901000012
:10006000CD070000D9010000D9010000D90100002E
:10007000D9010000D9010000D9010000D901000018
:10008000D9010000D9010000D9010000D901000008
:10009000D9010000D9010000D9010000D9010000F8
:1000A000D9010000D901000000000000000000009C
:1000B0000000000000000000000000000000000040
:1000C00000F002F800F04BF80CA030C808382418F3
:1000D0002D18A246671EAB4654465D46AC4201D180
:1000E00000F03DF87E460F3E0FCCB6460126334267
:1000F00000D0FB1AA246AB46334318475C2A0000E7
:100100007C2A0000103A02D378C878C1FAD8520786
:1001100001D330C830C101D504680C6070470000BD
:100120000023002400250026103A01D378C1FBD813
:10013000520700D330C100D50B60704710B5642959
:1001400002D100F097F810BD782902D100F0C8F86C
:1001500010BD002010BD1FB51FBD10B510BD00F0B3
:1001600047FA1146FFF7F7FF01F0CCFC00F05FFA09
:1001700003B4FFF7F2FF03BC00F064FA70B5054664
:100180000C46164602E00FCC0FC5103E102EFAD2D8
:10019000082E02D303CC03C5083E042E07D301CC9E
:1001A00001C5361F03E021782970641C6D1C761E82
:1001B000F9D270BD03210C4802680A4302600B4863
:1001C00002680A4302600A4880470A480047FEE77F
:1001D000FEE7FEE7FEE7FEE7FEE700000648074908
:1001E000074A084B704700002405004054050040B2
:1001F00065070000C1000000E0030020E0130020BC
:10020000E00B0020E00B00200FB4054910B503AA55
:10021000029800F0A9F910BC08BC04B0184700000F
:100220003800002070B5044685690068C10601D514
:10023000302600E02026C00707D070BD6268304637
:10024000A1689047206A401C20626D1EF6D570BDE3
:1002500070B5044685690078C00707D170BD626833
:10026000A16820209047206A401C20626D1EF6D5B0
:1002700070BD0000F7B5002575291068009914A617
:1002800011D0C046C046002802DA404211A608E05C
:10029000009909688A0701D50FA602E0490704D52D
:1002A0000EA6012501E0C046C046009F0024243769
:1002B00004E000F06DF930313955641C0028F8D1A4
:1002C0002B4632462146009800F0F5F8FEBD0000AE
:1002D000000000002D0000002B00000020000000A6
:1002E00070B504460D4621461068C046C0462188B8
:1002F000090502D50F4A7A4402E00E4A7A440E32CA
:1003000023460021243305E006070009360F965DD9
:100310005E54491C0028F7D120780023000705D53A
:10032000702D03D0002901D002231132204600F0A5
:10033000C2F870BD22280000F3B50446002081B049
:1003400020622046E168884700287DD0252802D019
:100350006268A16883E0454F00257F442046E1683C
:1003600088472028064608DB312E06D2B8192038E7
:100370000078002801D00543F0E7A80701D5042044
:1003800085430020E0610746A0612A2E0AD030464E
:1003900001F044F8002827D0B8000019303E009042
:1003A000866119E00298BA00121902C891610290A0
:1003B0002046E1688847012F064617D1E0690028EA
:1003C0001FDA202085431CE000980A2180694843F9
:1003D00000998019303888612046E16888470646D0
:1003E00001F01CF80028EFD1012F0AD02E2E08D1E1
:1003F0002046E16888470646202005437F1C022FDF
:10040000C3DBA069002803DA4042A0610120054354
:10041000E80701D010208543002E24D03046413813
:10042000192803D80120C002054320362046256044
:100430003146029A1546FFF781FE00280CD00128AC
:1004400007D0ED1DE80800E00DE0C0000830029084
:1004500077E72D1D029574E762683046A1689047E2
:10046000206A401C6CE7206AFEBD0000E627000001
:1004700001E004C0091F0429FBD28B0701D50280CB
:10048000801CC90700D00270704700290BD0C30739
:1004900002D00270401C491E022904D3830702D5F2
:1004A0000280801C891EE3E70022EEE70022DFE7DE
:1004B000704770477047FFB504460D4681B0243041
:1004C00000902168880604D51022E06991432160DC
:1004D00000E00120A84201DD471B00E0002704984E
:1004E000A1697A191018081AA0612078C00602D4F0
:1004F0002046FFF797FE002608E003986268A1688F
:10050000805D9047206A401C761C206204988642D9
:10051000F3DB2078C0060AD52046FFF783FE06E00D
:100520006268A16830209047206A401C20623846EB
:100530007F1E0028F4DC07E000986268A168405D37
:100540009047206A401C206228466D1E0028F3DC7C
:100550002046FFF77DFE2078000602D5022005B078
:10056000F0BD0120FBE70000084B70B50D467B4451
:1005700000F027F80446284600F036F8002802D09C
:100580000020C04370BD204670BD00001B15000058
:1005900001468008081A02091018020A1018020CF5
:1005A0001018C008820012185200891A01E0401C7D
:1005B0000A390A29FBD2704701694A1C026108788E
:1005C000704700B58FB00291002105910549019354
:1005D00079440391114604906846FFF7ADFE0FB0D1
:1005E00000BD0000E5FFFFFFC068802108407047A4
:1005F000754600F023F8AE46050069465346C0082C
:10060000C000854618B020B5FFF7E8FD60BC0027A4
:100610004908B6460026C0C5C0C5C0C5C0C5C0C5CE
:10062000C0C5C0C5C0C5403D49008D4670470446A1
:10063000C046C0462046FFF79BFD000000487047BB
:100640008003002001491820ABBEFEE7260002000F
:10065000704710B5152001F0A9FD10BD10B515208B
:1006600001F0D5FD10BD10B5162001F0B8FD10BD8C
:1006700010B5162001F0CBFD10BD10B5172001F00C
:1006800095FD10BD10B5172001F0C1FD10BD10B5CE
:10069000182001F0A4FD10BD10B5182001F0B7FD21
:1006A00010BD10B5152001F069FD162001F066FDA2
:1006B000172001F063FD182001F060FD042001F017
:1006C0005DFD0C2001F05AFDFFF7C3FFFFF7CBFFE4
:1006D000FFF7D3FFFFF7DBFF10BD000010B50028C8
:1006E00019DA1A4A03071B0F083B9B089B00D258D4
:1006F0008307DC0EFF23A3409A438B071B0E84075E
:10070000E40EA3401A43114B0407240F083CA4082D
:10071000A4001A5118E00E4A03231B02D2188308C2
:100720009B00D2588307DC0EFF23A3409A438B071C
:100730001B0E8407E40EA3401A43054B0324240236
:100740001B198408A4001A5110BD00001CED00E024
:1007500000E100E001480249086070470024F4000D
:100760004400002010B501F041FA002805D01148DE
:1007700011494860C8131149886101F039FA00280D
:1007800002D001200E49886001F034FA00280ED012
:100790000C480068012807D00B480A49086000BFD0
:1007A000084800680128FBD1C02006494861FFF7CE
:1007B000D1FF10BDDFFF07C000050040006C004006
:1007C0000006004000EC06407593000010B50422BE
:1007D0000249034801F062F910BD000074030020D3
:1007E0000080004070B504460D4600BF00BF0D48B4
:1007F0000068401C0B4908600B480078401C0A49FF
:1008000008702046FF384138002808D10321012014
:1008100000F016F80321022000F012F800E000BFFB
:1008200000BF70BD140000201800002010B5024960
:10083000024802F023F810BD3803002000200040D9
:1008400070B505460C46012D02D0022D20D10FE0D7
:10085000002C03D1042001F0A9FC08E0012C03D1F5
:10086000042001F0BCFC02E0042001F0D0FC10E008
:10087000002C03D10C2001F099FC08E0012C03D1DD
:100880000C2001F0ACFC02E00C2001F0C0FC00E008
:1008900000BF00BF70BD10B501F006FE10BD000026
:1008A000F0B585B00646772E49D1FA480068401C5D
:1008B000F8490860D020F8490870F6480078487078
:1008C000F44800880004000E88700320C870F148C6
:1008D00000880004000E0871EE4800784871062078
:1008E000EE49087001230622EB49262001F09AFE0A
:1008F0000546002D1ED0E84841790079E64AD278B5
:10090000009202910190E448837842780178E4A053
:10091000FFF77AFCE04800790002DF4B5B79C218F0
:10092000DD4840780002DC4B9B78C118EBA0FFF754
:100930006BFCE4E32946EFA0FFF766FCDFE3722ED1
:1009400027D1EC20D44908700520487001230222E9
:10095000262001F067FE054601231222CE492720FA
:1009600001F060FE0543002D0ED0EEA0FFF74CFC19
:10097000002406E0C848015DEEA0FFF745FC601CBE
:10098000C4B2122CF6DBBAE32946DAA0FFF73CFC2E
:10099000B5E3522E32D13620BF4908701520487079
:1009A00001230222262001F03DFE0546EC20BA4933
:1009B00008700520487001230222262001F032FE33
:1009C000054601231222B449272001F02BFE0543DE
:1009D000002D0ED0D3A0FFF717FC002406E0AE4890
:1009E000015DD4A0FFF710FC601CC4B2122CF6DB32
:1009F00085E32946BFA0FFF707FC80E3312E42D1F3
:100A00003620A5490870152048700220A3490870B7
:100A1000012308460278A049262001F003FE05467E
:100A2000EC209D4908700520487002209B49087001
:100A30000123084602789849262001F0F3FD054677
:100A40001220BF49087001230846027892492720E6
:100A500001F0E8FD0543002D10D0B2A0FFF7D4FB54
:100A6000002406E08C48015DB2A0FFF7CDFB601CBE
:100A7000C4B2B34800788442F4DB40E329469DA029
:100A8000FFF7C2FB3BE3322E32D1EC2082490870E3
:100A90000520487002208149087001230846027829
:100AA0007D49262001F0BEFD05461220A4490870AC
:100AB0000123084602787849272001F0B3FD054359
:100AC000002D10D09FA0FFF79FFB002406E0724886
:100AD000015D98A0FFF798FB601CC4B298480078AD
:100AE0008442F4DB0BE3294682A0FFF78DFB06E38B
:100AF000332E39D13620684908700820487000200C
:100B000088701920C87002216348801C01F03CFCE9
:100B1000074602216048801C00F07EFF02905E487C
:100B2000077105205D4908700123084602785A497B
:100B3000262001F077FD0546002D10D085A0FFF797
:100B400063FB002406E05448015D7AA0FFF75CFBDC
:100B5000601CC4B2514800788442F4DBCFE22946DD
:100B600064A0FFF751FBCAE2342E27D136204A4950
:100B70000870032048700220484908700123084685
:100B800002784549262001F04DFD0546002D10D084
:100B900074A0FFF739FB002406E03F48015D65A023
:100BA000FFF732FB601CC4B23C4800788442F4DB9F
:100BB000A5E229464FA0FFF727FBA0E2352E42D140
:100BC00036203549087015204870022033490870D6
:100BD0000023084602783049262001F023FD05460F
:100BE000EC202D4908700520487002202B49087020
:100BF0000023084602782849262001F013FD054607
:100C000012204F4908700123084602782249272004
:100C100001F008FD0543002D10D056A0FFF7F4FAAF
:100C2000002406E01C48015D42A0FFF7EDFA601CBD
:100C3000C4B2434800788442F4DB60E229462DA028
:100C4000FFF7E2FA5BE2362E21D1EC201249087060
:100C500005204870022011490870002308460278D8
:100C60000D49262001F0DEFC0546122034490870AB
:100C70000123084602780849272001F0D3FC0543E8
:100C8000002D05D03FA0FFF7BFFA002489E093E0D4
:100C90008CE0000024000020F8020020200000204A
:100CA0000A577269746520484558202030782530ED
:100CB00032582C203078253032582C20307825308E
:100CC00032582C203078253032582C20307825307E
:100CD00032582C203078253032582C0009094461D4
:100CE0007461312C0925642C0944617461322C092A
:100CF00025642C000A4932433A204572726F652CF4
:100D0000207477695F6D61737465725F7472616E70
:100D10007366657228293B2072657475726E202592
:100D2000642C00000A5265616431204845582C202B
:100D300000000000093078253032582C00000000F7
:100D4000210000200A5265616432204845582C2059
:100D5000000000000A577269746533204845582C1A
:100D6000200000000A577269746534204845582CE9
:100D7000200000000A5265616435204845582C2047
:100D8000000000000A5265616436204845582C2056
:100D900000000000DB48015DDB48FFF735FA601C0E
:100DA000C4B2DA4800788442F4DBA8E12946D64888
:100DB0004038FFF729FAA2E1612E5DD11120D14917
:100DC0000870882048700220D14908700DE0D04892
:100DD0000078801ECF49085CCA49CD4A12788854F1
:100DE000CB480078401CCA490870C94800780E28D2
:100DF000EDDB0221C348801C00F00EFE0390C149C8
:100E0000039808710221BF48401D00F005FE0390C1
:100E1000BC480399C1710221083000F0FDFD039028
:100E2000B8480399817202210B3000F0F5FD039060
:100E3000B448039941730123B5480278B14926208B
:100E400001F0F0FB0546002D10D0B3A0FFF7DCF950
:100E5000002406E0AB48015DAB48FFF7D5F9601C04
:100E6000C4B2AB4800788442F4DB48E12946A64886
:100E70004038FFF7C9F942E1622E33D11120A14970
:100E80000870082048700220A14908700123084614
:100E900002789C49262001F0C5FB05460C209B49A1
:100EA00008700123084602789649272001F0BAFB12
:100EB0000543002D10D09CA0FFF7A6F9002406E002
:100EC0009048015D9048FFF79FF9601CC4B28F48BD
:100ED00000788442F4DB12E129468B484038FFF762
:100EE00093F90CE1632E33D110208649087001205C
:100EF000487002208649087001230846027881491B
:100F0000262001F08FFB0546092080490870012347
:100F1000084602787B49272001F084FB0543002D19
:100F200010D085A0FFF770F9002406E07548015D38
:100F30007548FFF769F9601CC4B2744800788442B0
:100F4000F4DBDCE0294670484038FFF75DF9D6E075
:100F5000642E33D111206B4908700920487002209B
:100F60006B4908700123084602786649262001F083
:100F700059FB054618206549087001230846027888
:100F80006049272001F04EFB0543002D10D06EA0D4
:100F9000FFF73AF9002406E05A48015D5A48FFF786
:100FA00033F9601CC4B2594800788442F4DBA6E0EF
:100FB000294655484038FFF727F9A0E0652E8AD129
:100FC00011205049087089204870634F380E88708E
:100FD0003802000EC87002214A48801C00F01CFD37
:100FE00003904849039808713804000E48718F71C6
:100FF00002214448401D00F00FFD03904148039931
:10100000C1717F00380E3F4908723802000E4872E5
:1010100002213C48083000F0FFFC03903948039956
:1010200081723804000E3749C8720F7302213548A7
:101030000B3000F0F1FC0390324803994173474FA5
:10104000380E304988733802000EC87302212D48CB
:101050000E3000F0E1FC03902A4803990174380433
:10106000000E284948748F7402212648113000F080
:10107000D3FC039023480399C174394F380E21499A
:1010800008753802000E487502211E48143000F021
:10109000C3FC03901B48039981753804000E19495D
:1010A000C8750F7602211748173000F0B5FC039081
:1010B0001448039941761A201549087001230846FF
:1010C00002781049262001F0ADFA0546002D10D017
:1010D00024A0FFF799F8002406E00A48015D0A48B9
:1010E000FFF792F8601CC4B2094800788442F4DB30
:1010F00004E0294604484038FFF786F800BF05B0F1
:10110000F0BD0000F8020020340D00002100002096
:1011100020000020000000200A57726974652061D9
:10112000204845582C2000000A5265616420622046
:101130004845582C200000000A5265616420632055
:101140004845582C200000000A5265616420642044
:101150004845582C2000000011111111333333334E
:10116000444444440A5772697465206520484558D0
:101170002C20000010B5FFF794FA00F013F900F0EE
:10118000D9F8FFF788FB00F039F810BD10B5044618
:1011900001A0FFF739F810BD0A4B65793120757051
:1011A000206576656E742E0010B5044601A0FFF729
:1011B0002BF810BD0A4B6579322075702065766575
:1011C0006E742E0010B5044601A0FFF71DF810BD87
:1011D0000A4B657933207570206576656E742E0034
:1011E00010B5044601A0FFF70FF810BD0A4B657952
:1011F00034207570206576656E742E0010B503215D
:10120000112000F0A1FF0321122000F09DFF032117
:10121000132000F099FF0321142000F095FF012313
:1012200000221B491B4800F0ACFB022300221A4994
:101230001A4800F0A6FB032300221949194800F0C0
:10124000A0FB042300221849184800F09AFB184A12
:101250000121104800F054FA164A01210F4800F00D
:101260004FFA154A01210F4800F04AFA134A0121AA
:101270000E4800F045FA074800F0AAFB074800F0C6
:10128000A7FB084800F0A4FB084800F0A1FB10BD34
:10129000F91200004800002009130000740000202B
:1012A00017130000A000002025130000CC00002030
:1012B0008D110000A9110000C5110000E11100000E
:1012C00010B50948007805280DDB00200649087094
:1012D000064801780078401C044B187004A0FEF703
:1012E00093FF00F08BFB10BD1800002019000020B8
:1012F0000A6B662025642C0010B5044600BF11203F
:1013000000F060FFC0B210BD10B50446122000F01E
:1013100059FFC0B210BD10B50446132000F052FFB3
:10132000C0B210BD10B50446142000F04BFFC0B28F
:1013300010BD0000F8B500260124174817490860C1
:10134000084600210268164800F0E8FC00BF374656
:10135000002F04D000BF384600F084F800BF00BF63
:1013600000BF0F4A1168052212028A18106900BFD7
:1013700001467D22D2016243CA4000BF15460120CA
:1013800003462A4600210090054800F0A7FC0448C7
:1013900000F094FCF8BD0000E50700001C000020F0
:1013A000D429000030B58BB01822114905A8FEF7EA
:1013B000E5FE00BF0F480190FF20013002900E486B
:1013C0000390FF200130049003230C4A01A905A8D3
:1013D00000F0B8F8044600BF00BF2546002D04D039
:1013E00000BF284600F03EF800BF00BF0BB030BD84
:1013F000E4290000F8000020F8010020792700000F
:1014000030B47446641E2578641CAB4204D3635D1B
:101410005B00E31830BC18471D46F8E730380A284F
:1014200001D20120704700207047000000BF00BFBC
:1014300000BF00BF00BFBFF34F8F00BF00BF00BFA2
:1014400006480749C86000BF00BF00BFBFF34F8F09
:1014500000BF00BF00BF00BF00BFFDE70400FA05EA
:1014600000ED00E03EB5044600200090019002909F
:1014700002946A4600210248FFF7D8FF3EBD0000F3
:101480000140000070B504460D46204600F0E7FA22
:10149000002805D02946204600F0D0FA002070BD73
:1014A0000520FCE70346002901D10E207047002AE1
:1014B00003D0501E1040002801D00920F6E7196023
:1014C000501E988000209860D86000BFEEE770B58D
:1014D00004460D46204600F0C2FAA188884205D88D
:1014E0002946204600F0C9FA002070BD0420FCE720
:1014F000F8B504460F48077821460F48FFF7C2FFAA
:101500000090002F13D000200A49087001220B49D7
:101510000B4800F0BBFC054600BF2E46002E04D051
:1015200000BF3046FFF79EFF00BF00BF00BF00981E
:10153000F8BD0000360000205403002035000020D4
:1015400028000020FFB589B004460D4617463048F4
:101550000760002D02D107200DB0F0BDA88882B22F
:101560002C482968FFF79EFF064600BF002E01D0D9
:101570003046F1E700BFA88982B22748A968FFF783
:1015800091FF064600BF002E01D03046E4E700BFC1
:101590002022224901A8FEF7F1FD60690790207C16
:1015A000002801D0012000E000206946087608A943
:1015B0000C980870607C002801D00E2000E000200C
:1015C00069464876E0680390A0680490206802901D
:1015D00060680190124A01A9124800F00BFC06460F
:1015E00000BF002E01D03046B6E700BF00200E49F4
:1015F00008702068401C002808D00A4800F080FCD1
:1016000001220A49074800F041FCA5E70020A3E7B2
:10161000300000205403002064030020FC2A000056
:10162000A1270000280000203600002035000020FF
:1016300070B5044621460C48FFF749FF0546002DCA
:1016400010D10A4800F046FD00280BD10849064891
:10165000FFF718FF002805D101220549034800F0D3
:10166000D1FC0546284670BD6403002028000020F8
:101670003400002070B505460C462068401C002848
:1016800005D0206800F0B7FD206800F083FD606899
:10169000401C002803D00021606800F062FD28682B
:1016A000A169052212028218516200BF617D227D6C
:1016B00028680B461343052636028619F36600BFD9
:1016C00062682168286800F013FE207D012816D189
:1016D000A068401C002803D00021A06800F041FD54
:1016E000E068401C002805D0E06800F084FDE06858
:1016F00000F050FDA268E168286800F0D7FD70BDD9
:1017000010B58C0003460C331A5110BD70B5044659
:101710002079A16888470546E0784007400F0028F7
:1017200002DD2088401C2080E078C009A8421CD03F
:10173000E07838218843E1788906490F491CC900BF
:10174000382211400843E0708006400F032810DB68
:10175000E07880218843E901802211400843E0704D
:10176000E07838218843E07003E0E078382188434E
:10177000E070E0784007400F0300FFF741FE0604E9
:101780002856ACFBD7FBE078C009E1784906C90FC1
:10179000884216D1A078F0218843A070E068002824
:1017A00002D02046E168884700202080A078000908
:1017B0000001401CA070E078C008C000401CE07030
:1017C00004E0A078F02188438030A070D7E0E07872
:1017D000C009E1784906C90F884212D0A078F021EB
:1017E00088431030A0702069002802D0204621696B
:1017F000884700202080E078C008C000801CE0708E
:1018000012E02088C8280FDDA078F02188435030EE
:10181000A070206A002802D02046216A8847E0781C
:10182000C008C000401DE070A9E0E078C009E17880
:101830004906C90F884225D1A078F0218843A070BD
:10184000E068002802D02046E1688847A0780007B9
:10185000000F0F2808D0A07800090001A178491CCA
:101860000907090F0843A0706069002802D02046CC
:101870006169884700202080E078C008C000C01C53
:10188000E07027E020883C2824DDA0780007000FC6
:1018900001280BD1A078F02188433030A070A069D6
:1018A000002813D02046A16988470FE0A0780007E0
:1018B000000F02280AD1A078F02188434030A070A0
:1018C000E069002802D02046E1698847E078C00836
:1018D000C000E07053E0E078C009E1784906C90F24
:1018E00088421AD0A078F02188431030A070206977
:1018F000002802D020462169884720883C2807DA42
:1019000000202080E078C008C000801CE0700CE05F
:10191000E078C008C000E07007E020883C2804DDC3
:10192000E078C008C000401CE07028E0E078C00902
:10193000E1784906C90F88420BD1A078F02188438D
:101940006030A070606A002812D02046616A884723
:101950000EE0A078F02188431030A07020690028A4
:1019600002D0204621698847E078C008C000E070B6
:1019700005E0FFE7E078C008C000E07000BF00BFEE
:1019800070BDF8B504460E4615461F462C2120466C
:10199000FEF78CFDA078F02188438030A070A6600F
:1019A000E07880218843002D01D1012100E0002151
:1019B000C901802211400843E070E078402188434B
:1019C000A901402211400843E0702771F8BD0000D2
:1019D00001460948026805E08A4202D10020C0435E
:1019E0007047926A002AF7D103480068886202486B
:1019F00001600020F4E700004000002010B5054819
:101A0000046803E02046FFF781FEA46A002CF9D1A8
:101A100010BD00004000002010B50246FF2004E089
:101A200013784340044CE05C521C0B464C1EA1B2A0
:101A3000002BF5D110BD0000FC29000070B5044654
:101A40000D462A460021204600F00EF8A068401CF2
:101A5000A06070BD01468A68C868801A7047014658
:101A60008A68C868801A704710B583685B188488D4
:101A700023400468E35C137010BDC26883881A4079
:101A800003689954C268521CC260704770B504461E
:101A90000D46E0B2FFF7CCFD204670BDF7B582B031
:101AA00004460E46002728E0384600F0C7FB0546EE
:101AB000384600F0C9FB0190204629464258002ACA
:101AC00001D0012200E00022002A14D00198032155
:101AD0000902611849680140002901D0012100E094
:101AE0000021002907D02946204600F0B2FB2846F5
:101AF000326871689047781CC7B204988742D3DB7C
:101B000005B0F0BD08B500BF1E4800681E4908605A
:101B1000FFF730FB1DA0FEF777FB1B48016823A0F1
:101B2000FEF772FB27A0FEF76FFB29E0FFF7C8FB6B
:101B3000294800687D21C900884214D30020264925
:101B4000086026480068401C24490860084601686F
:101B500023A0FEF759FBFEF781FDFEF789FDFEF796
:101B600091FDFEF799FD6846FFF7C2FC002807D1FA
:101B700068460078FFF75CFD68460078FEF790FE47
:101B8000D4E70000000400400C0000200A0A4D4386
:101B9000552053746172742072756E6E696E672D74
:101BA0002D2D2D2D2D2D2D3E0A0000000A5265737E
:101BB00065745F536F75726365203D203078253002
:101BC000385800000A48616420696E697469616C64
:101BD000697A65642E0A00001400002010000020BD
:101BE0000A4D4C5F436E742C25642C000020704716
:101BF0000020704700207047002800D1704700BFC8
:101C000000BF00BF00BF00BF00BF00BF00BF00BFDC
:101C100007490968074A914200D101E000BF00BFAF
:101C200001460139084600D0EAE700BFE6E70000B8
:101C3000440000200024F40070B504460D462946F7
:101C40002046FEF74BFD00BFE106C90E012088408B
:101C50000549086000BF00BFE106C90E01208840A9
:101C60000249086000BF70BD80E200E000E100E0D2
:101C700001460803020E50B2704701460803020EE7
:101C800050B27047F8B505460C4616461F4620462A
:101C900000F0DAFA0090002F04D02868009900F0D4
:101CA000E0FA03E02868009900F0D6FA2B68A1005A
:101CB000152292019818465000BFF8BD10B5044691
:101CC0000021206800F0DAFA022120790C2250432A
:101CD000014A8018017210BD74030020F8B5054652
:101CE0000E4617461C46FF220132B2400123B34084
:101CF0001A431146286800F0B9FA28680121490200
:101D00000958214301225202115000BF3A46314680
:101D10002846069BFFF7B6FFF8BD0000F7B582B076
:101D200004460D4620790C21484331494618307A43
:101D3000002803D00827384605B0F0BD04980028D5
:101D400002D107273846F7E704983060686870606A
:101D5000002001900BE0019800F070FA00902068DC
:101D6000009900F076FA0198401CC0B201906179A8
:101D700001988142EFDC2068FFF77FFF0090E9784F
:101D8000FFF75AFF6978206805221202821852680C
:101D900052085200CB07DB0F1A4305231B02C3185E
:101DA0005A6000BFA9782068052212028218926842
:101DB000920892008B079B0F1A4305231B02C3183E
:101DC0009A6000BF297820680522120282181269E1
:101DD000120912010B071B0F1A4305231B02C3181C
:101DE0001A6100BF0120307200273846A4E70000C6
:101DF00074030020FEB505460E46174628791C21BF
:101E000048432049441800200290E07E002803D077
:101E1000082002900298FEBD31462846FFF72AFCB2
:101E20006760306920606068002818D0307F0190BA
:101E3000FF211D31286800F036FAFF21453128685E
:101E400000F031FA1049286800F03EFA2868FFF7E0
:101E50000FFF00900199FFF7EFFE00BF00BF00BF2A
:101E600028680421052212028218116000BF00BFF9
:101E70000020E0752076A0750120E0760020A07695
:101E80000298C8E73803002080000200FEB505462E
:101E90000E46174628791C2148431849441800204B
:101EA00000906068002804D081218900286800F033
:101EB00006FAE07D002810D0207E00280BD0606854
:101EC000002804D081218900286800F0FDF9112044
:101ED00001900198FEBD012000900098002804D1D7
:101EE000E775E6606076207601E0266127763A465F
:101EF00031462846009B00F01BF8EBE73803002032
:101F000010B5044620791C21484308494018807EBA
:101F1000002809D1204600F026FA012120791C2250
:101F20005043024A8018817610BD0000380300201B
:101F3000FFB583B0044620791C2148433049451839
:101F4000A87E002805D10698002802D1204600F07E
:101F50000AFA686800284AD1FF214531206800F05C
:101F6000A2F900BF00BFFF212531206800F093F9DE
:101F70000190FF210931206800F08DF90290FF21C6
:101F80004531206800F087F906460298002804D100
:101F9000002E02D101980028E5D00198002801D137
:101FA000002E00D007E02946206800F0AAF9E87D5D
:101FB000697E8842D6DC00BF0020E87501980028C1
:101FC00003D00327384607B0F0BD002E02D00F27FC
:101FD0003846F8E7A87E002804D00021206800F0E9
:101FE00084F903E00421206800F07FF904E08121F6
:101FF0008900206800F068F900273846E3E7000010
:1020000038030020F8B505460E46174628791C21EE
:10201000484309494418284600F05CF8002803D0DA
:10202000112000900098F8BDA775A6600020A0823E
:10203000284600F003F8F6E73803002070B50446A0
:1020400020791C214843224945180026FF211D31D3
:10205000206800F028F90821206800F046F9294698
:10206000206800F063FB686800282FD115E000BFEE
:10207000FF211D31206800F00EF9002804D1A88A44
:10208000FF2101318842F3D1A88AFF210131884222
:1020900003D02946206800F049FBA88AA97D884220
:1020A000E5DBA88AFF210131884201D10F260BE030
:1020B00000BFFF211D31206800F0EDF80028F8D0A6
:1020C0000C21206800F011F90020A875304670BD81
:1020D00038030020014608791C225043044A801826
:1020E000807D002801D0012070470020FCE700001F
:1020F00038030020F0B500BF05252D072C465500FC
:102100000D439E003543059E36023543069E360438
:102110003543860007273F02E719BD51F0BDF0B5F2
:1021200000BF05252D072C4655000D439E00354365
:10213000059E36023543069E360435438600072742
:102140003F02E719BD51F0BD7CB505460C460020A5
:10215000009023460246014601902846FFF7CAFF39
:102160007CBD7CB505460C46002000902346024607
:10217000014601902846FFF7D2FF7CBD1CB50446FE
:102180000020009003460122114601902046FFF7EF
:10219000B1FF1CBD1CB5044600200090034601227F
:1021A000114601902046FFF7BAFF1CBD00BF052174
:1021B00009070A460121814005231B02D318D96073
:1021C00000BF7047014600BF05200007024600BF60
:1021D000001510180069C840C007C00F704700BF45
:1021E000052109070A460121814005231B02D31856
:1021F000996000BF704700BF052109070A46012109
:10220000814005231B02D318996000BF704710B5A9
:1022100000BF05231B0719461B15CB185A6801235D
:1022200083409343052424020C19A36001238340B7
:102230001340052424020C19E36010BD01468800F8
:10224000FF30413080B270470146012000048840D1
:102250007047002242507047032212028218916098
:102260007047032212028218516070470122520205
:1022700012588A4301235B021A50704701224250D0
:10228000704701460922D2018A1810680922D2013A
:102290008A181060704702465058002801D001206B
:1022A00070470020FCE700224250704705231B02C4
:1022B000C318996005231B02C3181A6170470322D3
:1022C0001202821891607047032212028218516034
:1022D000704702460320000210184068084000289A
:1022E00001D0012070470020FCE7012242507047D6
:1022F00005231B02C3185A6105231B02C318D960AA
:10230000704770B505460C46E07D00280AD1FF21D4
:1023100009312846FFF7C7FF00BF05200002281833
:10232000806970BDFF2109312846FFF7BCFF00BF5F
:102330000520000228188069C0B2627EE1688854D6
:10234000607E401C607600BFEBE77FB504460D461B
:102350001646012069460870684605720196626853
:10236000216890477FBD10B50446FF2125312068C4
:10237000FFF799FFFF2109312068FFF794FF002143
:102380002068FFF7B2FF10BD70B502460B46FF2074
:10239000002114E0555C684008240CE080250540CD
:1023A000002D04D0450031267540E8B201E0450615
:1023B000280E651EECB2002CF0DC4D1CA9B299422F
:1023C000E8DB70BDF8B53548056800203349086082
:1023D0000805072109024018466C31480521090704
:1023E0000722120289184864052000071146401888
:1023F000806C00902A48052109078918886400BF6D
:10240000012080042749886000BF00BF4010886019
:1024100000BF0420FFF7F0FB224800694003C00F13
:10242000002807D01F4800698003C00F002801D092
:10243000012422E00024122719E000BF01204004FB
:102440001849C86000BF0420FFF7D6FB00BF012079
:1024500040041449886000BF0420FFF7CDFB1148F9
:1024600000694003C00F002801D0012403E0384672
:102470007F1E0028E1D100BF00BF05200007072113
:10248000090240184664052109070722120289182B
:1024900000988864014805602046F8BD004500406A
:1024A0000D0600000005005010B51548052109076C
:1024B00007221202891848640521090789188864CF
:1024C000002010498860C86111200F4988601220DF
:1024D000C8603320C00448620A4838300B4908619C
:1024E0000848E4380A49512212018918486001203D
:1024F00006498860052004490860FFF763FF10BDA6
:102500000C060000004100400045004000F501407D
:1025100000F00140F8B505460C4617463B4E002C2E
:1025200001D10020F8BD012C06D13948394951228A
:1025300012018918486006E03548083035495122B3
:102540001201891848600120334948600020304951
:10255000EC31886001202E491439086045E000BF45
:102560002B48EC308068002807D12948EC30406ABD
:10257000002802D1701E0600F2D100202449EC315F
:102580008860002E03D00846406A002814D000203E
:102590001F49EC314862214908602149C863052080
:1025A000FFF72AFB01201E49C86305201B4908606C
:1025B000FFF77AFF0020B5E71848806928706D1C86
:1025C000601EC0B20446012805D1114811495122AC
:1025D000120189184860002C00D107E01420FFF791
:1025E0000BFB01200A4914390862B8E700BF00BF9D
:1025F0000748EC3040680028FAD000200449EC314C
:10260000486001200449886000BF8BE7204E00002D
:102610001440004000F0014000F50140004500403A
:10262000C04F0040F8B504460E4615461F46002030
:102630000090002D17DDFFF7C5FE002813D06010B5
:102640000A498860E007C00F002806D03A462946AC
:102650003046FFF75FFF009005E03A4629463046D6
:1026600000F006F800900098F8BD0000804500409A
:10267000F8B504460D461646274F002D01D100201F
:10268000F8BD20782549C861641C01202449886070
:1026900031E000BF2348C069002806D12148406AC4
:1026A000002802D1781E0700F4D1002F03D01D4866
:1026B000406A002813D000201A4948621749086070
:1026C0001949C8630520FFF797FA01201649C86326
:1026D000052012490860FFF7E7FE0020D0E7002040
:1026E0001049C861681EC0B2050000D104E020781E
:1026F0000A49C861641CCCE700BF002E0AD0002044
:102700000849486001200649486100BF0548406803
:102710000028FBD00120B3E7204E00000045004018
:102720000040004000410040C04F004070B50546E9
:102730000C46FF211D312846FFF7B5FDA18AA06890
:10274000465CA08A401CA082304605210902691817
:10275000C86100BF70BD7FB504460D4600206946C4
:10276000087068460572A06801900020A075684650
:102770006268216890477FBD10B504462078022822
:1027800004D100BF6068FEF76DFE07E020780128E5
:1027900004D100BF6068FEF765FE00BF10BD0000F9
:1027A0007CB504460E462078002841D0012802D08E
:1027B000022851D12DE0606801782948FEF787FE94
:1027C0000546002D08D0012069460870019568462D
:1027D0002449096888470BE02148FFF73BF90028A6
:1027E00006D000206946087068461E490968884777
:1027F0001B48FFF72FF91A498988884205D801221A
:1028000019491A48FFF742FB02E0012018490870F5
:1028100023E0022069460870E06801900122124915
:102820001248FFF733FB68460E490968884714E0F1
:1028300010491148FEF726FE002805D101220D4956
:102840000A48FFF7DFFB06E0032069460870684688
:1028500004490968884700E000BF00BF7CBD000054
:102860005403002030000020350000202800002004
:10287000360000203400002064030020F0B585B04D
:1028800005460C46012149022846FFF722FD002893
:102890002BD0FF2125312846FFF7FDFC002824D04E
:1028A000FF2125312846FFF7FEFC812189002846BB
:1028B000FFF705FDA07E002803D104212846FFF77D
:1028C00014FD0220694608702846FFF7DAFC0390E1
:1028D000E17D68460172E06801900020E075207695
:1028E000684662682168904739E004212846FFF76E
:1028F000F0FC002833D0FF2109312846FFF7CBFC3C
:1029000000282CD021462846FFF7FBFCE07D617EA5
:10291000884224D1207E00280ED0E668677E207E83
:10292000E0752069E0600020207660763246394606
:102930002046FFF70AFD12E0A07E002803D1042103
:102940002846FFF7D2FC812189002846FFF7B7FC13
:102950000020E075617EE2682046FFF7F6FCFF216B
:102960001D312846FFF797FC002814D0A08AA17DCE
:10297000884204DA21462846FFF7D8FE0BE0FF2103
:102980001D312846FFF78FFCA07D002803D0A17DD4
:102990002046FFF7E0FEFF2145312846FFF77BFC8C
:1029A000002815D0FF2145312846FFF77CFCA07E8A
:1029B000002803D000212846FFF797FCE07D00287F
:1029C00006D00020E075617EE2682046FFF7BDFC7E
:1029D00005B0F0BD008000400000000000000003D2
:1029E000000000000B000000090000000A000000C9
:1029F000080000000000000000E0D7010031625331
:102A0000C4F5A697B988DBEA7D4C1F2E43722110CE
:102A100087B6E5D4FACB98A93E0F5C6D86B7E4D5AE
:102A2000427320113F0E5D6CFBCA99A8C5F4A796AE
:102A3000013063527C4D1E2FB889DAEB3D0C5F6E7E
:102A4000F9C89BAA84B5E6D7407122137E4F1C2D8E
:102A5000BA8BD8E9C7F6A59403326150BB8AD9E88E
:102A60007F4E1D2C02336051C6F7A495F8C99AAB6E
:102A70003C0D5E6F4170231285B4E7D67A4B18295E
:102A8000BE8FDCEDC3F2A1900736655439085B6A4E
:102A9000FDCC9FAE80B1E2D344752617FCCD9EAF2E
:102AA00038095A6B4574271681B0E3D2BF8EDDEC2E
:102AB0007B4A192806376455C2F3A091477625143E
:102AC00083B2E1D0FECF9CAD3A0B5869043566570E
:102AD000C0F1A293BD8CDFEE79481B2AC1F0A3920E
:102AE0000534675678491A2BBC8DDEEF82B3E0D1EE
:102AF000467724153B0A5968FFCE9DACFFFFFFFFC8
:102B0000FFFFFFFFFFFFFFFFFFFFFFFF00000000D1
:102B10000000000000E0D701030000003031323334
:102B20003435363738394142434445464030580001
:102B30003031323334353637383961626364656633
:102B4000403078000400000800000000000000028F
:102B50000001000010000000782B000000000020A1
:102B60004800000004010000C02B000048000020C5
:102B7000981300002001000014190102150201023F
:102B80000303040400000000000000000000000037
:102B90000000000000000000000000000000000035
:102BA00000200040000000000000000000000000C5
:102BB0000000000000000000000000000024F400FD
:04000005000000C136
:00000001FF
