:020000040000FA
:10000000D8120020B5010000CF010000D10100008E
:1000100000000000000000000000000000000000E0
:10002000000000000000000000000000D3010000FC
:100030000000000000000000D5010000D701000012
:10004000D9010000D9010000E1070000D90100003A
:10005000D901000000000000D9010000D901000012
:100060008D070000D9010000D9010000D90100006E
:10007000D9010000D9010000D9010000D901000018
:10008000D9010000D9010000D9010000D901000008
:10009000D9010000D9010000D9010000D9010000F8
:1000A000D9010000D901000000000000000000009C
:1000B0000000000000000000000000000000000040
:1000C00000F002F800F04BF80CA030C808382418F3
:1000D0002D18A246671EAB4654465D46AC4201D180
:1000E00000F03DF87E460F3E0FCCB6460126334267
:1000F00000D0FB1AA246AB46334318474C1700000A
:100100006C170000103A02D378C878C1FAD85207A9
:1001100001D330C830C101D504680C6070470000BD
:100120000023002400250026103A01D378C1FBD813
:10013000520700D330C100D50B60704710B5642959
:1001400002D100F097F810BD782902D100F0C8F86C
:1001500010BD002010BD1FB51FBD10B510BD00F0B3
:1001600027FA1146FFF7F7FF00F0B4FD00F03FFA61
:1001700003B4FFF7F2FF03BC00F044FA70B5054684
:100180000C46164602E00FCC0FC5103E102EFAD2D8
:10019000082E02D303CC03C5083E042E07D301CC9E
:1001A00001C5361F03E021782970641C6D1C761E82
:1001B000F9D270BD03210C4802680A4302600B4863
:1001C00002680A4302600A4880470A480047FEE77F
:1001D000FEE7FEE7FEE7FEE7FEE700000648074908
:1001E000074A084B704700002405004054050040B2
:1001F00025070000C1000000D8020020D81200200E
:10020000D80A0020D80A00200FB4054910B503AA67
:10021000029800F089F910BC08BC04B0184700002F
:100220002000002070B5044685690068C10601D52C
:10023000302600E02026C00707D070BD6268304637
:10024000A1689047206A401C20626D1EF6D570BDE3
:1002500070B5044685690078C00707D170BD626833
:10026000A16820209047206A401C20626D1EF6D5B0
:1002700070BD0000F7B5002575291068009914A617
:1002800011D0C046C046002802DA404211A608E05C
:10029000009909688A0701D50FA602E0490704D52D
:1002A0000EA6012501E0C046C046009F0024243769
:1002B00004E000F04DF930313955641C0028F8D1C4
:1002C0002B4632462146009800F0D5F8FEBD0000CE
:1002D000000000002D0000002B00000020000000A6
:1002E00070B504460D4621461068C046C0462188B8
:1002F000090502D50F4A7A4402E00E4A7A440E32CA
:1003000023460021243305E006070009360F965DD9
:100310005E54491C0028F7D120780023000705D53A
:10032000702D03D0002901D002231132204600F0A5
:10033000A2F870BD12150000F3B50446002081B08C
:1003400020622046E168884700287DD0252802D019
:100350006268A16883E0454F00257F442046E1683C
:1003600088472028064608DB312E06D2B8192038E7
:100370000078002801D00543F0E7A80701D5042044
:1003800085430020E0610746A0612A2E0AD030464E
:1003900000F0CAFA002827D0B8000019303E0090BB
:1003A000866119E00298BA00121902C891610290A0
:1003B0002046E1688847012F064617D1E0690028EA
:1003C0001FDA202085431CE000980A2180694843F9
:1003D00000998019303888612046E16888470646D0
:1003E00000F0A2FA0028EFD1012F0AD02E2E08D15A
:1003F0002046E16888470646202005437F1C022FDF
:10040000C3DBA069002803DA4042A0610120054354
:10041000E80701D010208543002E24D03046413813
:10042000192803D80120C002054320362046256044
:100430003146029A1546FFF781FE00280CD00128AC
:1004400007D0ED1DE80800E00DE0C0000830029084
:1004500077E72D1D029574E762683046A1689047E2
:10046000206A401C6CE7206AFEBD0000D614000024
:10047000704770477047FFB504460D4681B0243081
:1004800000902168880604D51022E069914321601C
:1004900000E00120A84201DD471B00E0002704988E
:1004A000A1697A191018081AA0612078C00602D430
:1004B0002046FFF7B7FE002608E003986268A168AF
:1004C000805D9047206A401C761C2062049886421A
:1004D000F3DB2078C0060AD52046FFF7A3FE06E02E
:1004E0006268A16830209047206A401C206238462C
:1004F0007F1E0028F4DC07E000986268A168405D78
:100500009047206A401C206228466D1E0028F3DCBC
:100510002046FFF79DFE2078000602D5022005B098
:10052000F0BD0120FBE70000084B70B50D467B4491
:1005300000F027F80446284600F036F8002802D0DC
:100540000020C04370BD204670BD00002B07000096
:1005500001468008081A02091018020A1018020C35
:100560001018C008820012185200891A01E0401CBD
:100570000A390A29FBD2704701694A1C02610878CE
:10058000704700B58FB00291002105910549019394
:1005900079440391114604906846FFF7CDFE0FB0F1
:1005A00000BD0000E5FFFFFFC068802108407047E4
:1005B000754600F023F8AE46050069465346C0086C
:1005C000C000854618B020B5FFF708FE60BC0027C4
:1005D0004908B6460026C0C5C0C5C0C5C0C5C0C50F
:1005E000C0C5C0C5C0C5403D49008D4670470446E2
:1005F000C046C0462046FFF7BBFD000000487047DC
:100600007402002001491820ABBEFEE7260002005C
:10061000704710B5152000F0A1FE10BD10B51520D3
:1006200000F0C0FE10BD10B5162000F0A3FE10BDF6
:1006300010B5162000F0B6FE10BD10B5172000F062
:100640008DFE10BD10B5172000F0ACFE10BD10B52A
:10065000182000F08FFE10BD10B5182000F0A2FE8B
:1006600010BD10B5152000F051FE162000F04EFE12
:10067000172000F04BFE182000F048FE042000F088
:1006800045FE0C2000F042FEFFF7C3FFFFF7CBFF53
:10069000FFF7D3FFFFF7DBFF10BD000010B5002808
:1006A00019DA1A4A03071B0F083B9B089B00D25814
:1006B0008307DC0EFF23A3409A438B071B0E84079E
:1006C000E40EA3401A43114B0407240F083CA4086E
:1006D000A4001A5118E00E4A03231B02D218830803
:1006E0009B00D2588307DC0EFF23A3409A438B075D
:1006F0001B0E8407E40EA3401A43054B0324240277
:100700001B198408A4001A5110BD00001CED00E064
:1007100000E100E001480249086070470024F4004D
:100720002800002010B500F06BFB002805D0114810
:1007300011494860C8131149886100F063FB002823
:1007400002D001200E49886000F05EFB00280ED028
:100750000C480068012807D00B480A49086000BF10
:10076000084800680128FBD1C02006494861FFF70E
:10077000D1FF10BDDFFF07C000050040006C004046
:100780000006004000EC06407593000010B50422FE
:100790000249034800F06AFA10BD00006802002018
:1007A0000080004070B504460D4600BF00BF0B48F6
:1007B0000068401C094908602046FF38413800287D
:1007C00008D10321012000F015F80321022000F0D8
:1007D00011F800E000BF00BF70BD0000080000205D
:1007E00010B50249024800F041FF10BD2C02002064
:1007F0000020004070B505460C46012D02D0022DA8
:1008000020D10FE0002C03D1042000F0A7FD08E068
:10081000012C03D1042000F0ADFD02E0042000F023
:10082000C1FD10E0002C03D10C2000F097FD08E082
:10083000012C03D10C2000F09DFD02E00C2000F003
:10084000B1FD00E000BF00BF70BD10B5FFF709FFAC
:1008500000F03CF800F002F810BD0000F8B50026EA
:100860000124174817490860084600210268164805
:1008700000F03EFB00BF3746002F04D000BF3846D3
:1008800000F076F800BF00BF00BF0F4A11680522D4
:1008900012028A18106900BF01467D22D20162430C
:1008A000CA4000BF1546012003462A460021009099
:1008B000054800F0FDFA044800F0EAFAF8BD00002F
:1008C000A50700000C000020C417000030B58BB055
:1008D0001822114905A8FFF751FC00BF0F480190ED
:1008E000FF20013002900E480390FF200130049059
:1008F00003230C4A01A905A800F0AAF8044600BF8A
:1009000000BF2546002D04D000BF284600F030F877
:1009100000BF00BF0BB030BDD41700002C0000207A
:100920002C0100206B15000030380A2801D201206C
:10093000704700207047000000BF00BF00BF00BF2D
:1009400000BFBFF34F8F00BF00BF00BF064807497D
:10095000C86000BF00BF00BFBFF34F8F00BF00BF24
:1009600000BF00BF00BFFDE70400FA0500ED00E096
:100970003EB50446002000900190029002946A4621
:1009800000210248FFF7D8FF3EBD000001400000F3
:1009900070B504460D46204600F049F9002805D000
:1009A0002946204600F032F9002070BD0520FCE702
:1009B0000346002901D10E207047002A03D0501EA3
:1009C0001040002801D00920F6E71960501E9880D9
:1009D00000209860D86000BFEEE770B504460D4671
:1009E000204600F024F9A188884205D829462046EF
:1009F00000F02BF9002070BD0420FCE7F8B5044698
:100A00000F48077821460F48FFF7C2FF0090002FDC
:100A100013D000200A49087001220B490B4800F04E
:100A20001FFB054600BF2E46002E04D000BF3046F7
:100A3000FFF79EFF00BF00BF00BF0098F8BD000099
:100A40001E000020480200201D0000201000002091
:100A5000FFB589B004460D46174630480760002DA3
:100A600002D107200DB0F0BDA88882B22C482968B9
:100A7000FFF79EFF064600BF002E01D03046F1E78B
:100A800000BFA88982B22748A968FFF791FF0646F0
:100A900000BF002E01D03046E4E700BF20222249EB
:100AA00001A8FFF76BFB60690790207C002801D04C
:100AB000012000E000206946087608A90C9808701B
:100AC000607C002801D00E2000E0002069464876B6
:100AD000E0680390A068049020680290606801902C
:100AE000124A01A9124800F06FFA064600BF002E14
:100AF00001D03046B6E700BF00200E4908702068DC
:100B0000401C002808D00A4800F0E4FA01220A49F3
:100B1000074800F0A5FAA5E70020A3E71800002089
:100B20004802002058020020EC1700009115000038
:100B3000100000201E0000201D00002070B504469B
:100B400021460C48FFF749FF0546002D10D10A4801
:100B500000F0AAFB00280BD108490648FFF718FF50
:100B6000002805D101220549034800F035FB054660
:100B7000284670BD58020020100000201C000020F4
:100B800070B505460C462068401C002805D020683A
:100B900000F0FCFB206800F0D5FB6068401C0028DA
:100BA00003D00021606800F0A4FB2868A169052239
:100BB00012028218516200BF617D227D28680B46B7
:100BC0001343052636028619F36600BF6268216862
:100BD000286800F058FC207D012816D1A068401C30
:100BE000002803D00021A06800F083FBE068401CCF
:100BF000002805D0E06800F0C9FBE06800F0A2FB27
:100C0000A268E168286800F01CFC70BD70B504465D
:100C10000D462A460021204600F00EF8A068401C30
:100C2000A06070BD01468A68C868801A7047014696
:100C30008A68C868801A704710B583685B18848812
:100C400023400468E35C137010BDC26883881A40B7
:100C500003689954C268521CC260704770B504465C
:100C60000D46E0B2FFF76AFF204670BDF7B582B0CF
:100C700004460E46002728E0384600F0AAFB054649
:100C8000384600F0ACFB0190204629464258002A25
:100C900001D0012200E00022002A14D00198032193
:100CA0000902611849680140002901D0012100E0D2
:100CB0000021002907D02946204600F095FB284650
:100CC000326871689047781CC7B204988742D3DBBA
:100CD00005B0F0BD08B500BF204800682049086095
:100CE000FFF7B3FD1FA0FFF78FFA1D48016825A08D
:100CF000FFF78AFA2948016829A0FFF785FA2F48EB
:100D000001682FA0FFF780FA35A0FFF77DFA23E0F6
:100D10002A4800687D21C900884214D9002027494B
:100D200008601E480068401C1C49086008460168AD
:100D300030A0FFF769FAFFF771FCFFF779FCFFF7C6
:100D400081FCFFF789FC6846FFF758FE002803D1B5
:100D500068460078FFF7F2FEDAE700000004004082
:100D6000000000200A0A4D4355205374617274201C
:100D700072756E6E696E672D2D2D2D2D2D2D2D3ECC
:100D80000A0000000A52657365745F536F757263E1
:100D900065203D20307825303858000004000020C0
:100DA0000A4D61696E4C6F6F705F436E74203D2019
:100DB0004D4C5F436E74203D2025640008000020E8
:100DC0000A54696D655374616D705F436E74203DA4
:100DD0002054535F436E74203D2025640A000000B8
:100DE0000A48616420696E697469616C697A656436
:100DF0002E0A00000A4D4C5F436E742C25642C00B3
:100E000000207047002070470020704770B50446EE
:100E10000D4629462046FFF741FC00BFE106C90EFA
:100E2000012088400549086000BF00BFE106C90EE7
:100E3000012088400249086000BF70BD80E200E0E8
:100E400000E100E001460803020E50B2704701467F
:100E50000803020E50B27047F8B505460C46164618
:100E60001F46204600F0BBFA0090002F04D02868EF
:100E7000009900F0C1FA03E02868009900F0B7FA81
:100E80002B68A100152292019818465000BFF8BDAA
:100E900010B504460021206800F0BBFA0221207939
:100EA0000C225043014A8018017210BD68020020D4
:100EB000F8B505460E4617461C46FF220132B240E1
:100EC0000123B3401A431146286800F09AFA2868B3
:100ED000012149020958214301225202115000BF49
:100EE0003A4631462846069BFFF7B6FFF8BD00009C
:100EF000F7B582B004460D4620790C2148433149AC
:100F00004618307A002803D00827384605B0F0BDCF
:100F10000498002802D107273846F7E70498306084
:100F200068687060002001900BE0019800F051FAB1
:100F300000902068009900F057FA0198401CC0B258
:100F40000190617901988142EFDC2068FFF77FFF13
:100F50000090E978FFF75AFF6978206805221202AD
:100F60008218526852085200CB07DB0F1A43052340
:100F70001B02C3185A6000BFA9782068052212021C
:100F800082189268920892008B079B0F1A430523E0
:100F90001B02C3189A6000BF29782068052212023C
:100FA00082181269120912010B071B0F1A4305233D
:100FB0001B02C3181A6100BF012030720027384697
:100FC000A4E7000068020020FEB505460E4617465D
:100FD00028791C2148432049441800200290E07ED3
:100FE000002803D0082002900298FEBD3146284612
:100FF000FFF7C6FD6760306920606068002818D080
:10100000307F0190FF211D31286800F017FAFF2181
:101010004531286800F012FA1049286800F01FFADC
:101020002868FFF70FFF00900199FFF7EFFE00BF60
:1010300000BF00BF28680421052212028218116037
:1010400000BF00BF0020E0752076A0750120E0768B
:101050000020A0760298C8E72C0200208000020041
:10106000FEB505460E46174628791C214843184907
:101070004418002000906068002804D08121890075
:10108000286800F0E7F9E07D002810D0207E0028D5
:101090000BD06068002804D081218900286800F006
:1010A000DEF9112001900198FEBD0120009000980A
:1010B000002804D1E775E6606076207601E02661BD
:1010C00027763A4631462846009B00F01BF8EBE7AE
:1010D0002C02002010B5044620791C214843084901
:1010E0004018807E002809D1204600F007FA01212F
:1010F00020791C225043024A8018817610BD0000DE
:101100002C020020FFB583B0044620791C214843FF
:1011100030494518A87E002805D10698002802D13C
:10112000204600F0EBF9686800284AD1FF214531DC
:10113000206800F083F900BF00BFFF21253120683F
:1011400000F074F90190FF210931206800F06EF978
:101150000290FF214531206800F068F906460298A8
:10116000002804D1002E02D101980028E5D0019872
:10117000002801D1002E00D007E02946206800F0A9
:101180008BF9E87D697E8842D6DC00BF0020E875D7
:101190000198002803D00327384607B0F0BD002E81
:1011A00002D00F273846F8E7A87E002804D0002197
:1011B000206800F065F903E00421206800F060F980
:1011C00004E081218900206800F049F900273846B1
:1011D000E3E700002C020020F8B505460E4617464E
:1011E00028791C21484309494418284600F05CF836
:1011F000002803D0112000900098F8BDA775A660C4
:101200000020A082284600F003F8F6E72C02002018
:1012100070B5044620791C21484322494518002610
:10122000FF211D31206800F009F90821206800F035
:1012300027F92946206800F072F9686800282FD144
:1012400015E000BFFF211D31206800F0EFF80028F5
:1012500004D1A88AFF2101318842F3D1A88AFF2155
:101260000131884203D02946206800F058F9A88A45
:10127000A97D8842E5DBA88AFF210131884201D19E
:101280000F260BE000BFFF211D31206800F0CEF8D3
:101290000028F8D00C21206800F0F2F80020A87592
:1012A000304670BD2C020020014608791C225043B4
:1012B000044A8018807D002801D00120704700205A
:1012C000FCE700002C020020F0B500BF05252D072B
:1012D0002C4655000D439E003543059E360235438E
:1012E000069E36043543860007273F02E719BD51A5
:1012F000F0BD7CB505460C46002000902346024612
:10130000014601902846FFF7DFFF7CBDFEB50121B5
:101310000A4600230193029300BF0524240700948A
:1013200054000C439D002C43019D2D022C43029D33
:101330002D042C43860007273F02009DED19AC5178
:1013400000BFFEBD1CB504460020009003460122EC
:10135000114601902046FFF7B7FF1CBD00BF0521D5
:1013600009070A460121814005231B02D318D960D1
:1013700000BF704700BF052109070A4601218140CF
:1013800005231B02D318996000BF704700BF0521D9
:1013900009070A460121814005231B02D3189960E1
:1013A00000BF704710B500BF05231B0719461B156A
:1013B000CB185A68012383409343052424020C1957
:1013C000A360012383401340052424020C19E36029
:1013D00010BD01468800FF30413080B270470146A1
:1013E00001200004884070470022425070470322C9
:1013F0001202821891607047032212028218516013
:1014000070470122520212588A4301235B021A508C
:10141000704701224250704701460922D2018A18C2
:1014200010680922D2018A1810607047024650588D
:10143000002801D0012070470020FCE70022425024
:10144000704705231B02C318996005231B02C318AC
:101450001A617047032212028218916070470322BA
:1014600012028218516070470246032000021018D1
:1014700040680840002801D0012070470020FCE7A8
:1014800001224250704705231B02C3185A610523ED
:101490001B02C318D960704770B505460C46E07D45
:1014A00000280AD1FF2109312846FFF7C7FF00BFF6
:1014B000052000022818806970BDFF2109312846E7
:1014C000FFF7BCFF00BF0520000228188069C0B2EA
:1014D000627EE1688854607E401C607600BFEBE766
:1014E0007FB504460D4616460120694608706846D9
:1014F000057201966268216890477FBD10B5044669
:10150000FF2125312068FFF799FFFF21093120686D
:10151000FFF794FF00212068FFF7B2FF10BD70B500
:1015200005460C46FF211D312846FFF787FFA18A9B
:10153000A068465CA08A401CA082304605210902B2
:101540006918C86100BF70BD7FB504460D46002014
:101550006946087068460572A06801900020A07571
:1015600068466268216890477FBD10B504462078C0
:10157000022804D100BF6068FFF7FAF907E020787D
:10158000012804D100BF6068FFF7F2F900BF10BD69
:101590007CB504460E462078002841D0012802D0B0
:1015A000022851D12DE0606801782948FFF715FA2B
:1015B0000546002D08D0012069460870019568464F
:1015C0002449096888470BE02148FFF72BFB0028D6
:1015D00006D000206946087068461E490968884799
:1015E0001B48FFF71FFB1A498988884205D801224A
:1015F00019491A48FFF734FD02E001201849087024
:1016000023E0022069460870E06801900122124937
:101610001248FFF725FD68460E490968884714E01F
:1016200010491148FFF7B4F9002805D101220D49EE
:101630000A48FFF7D1FD06E00320694608706846B6
:1016400004490968884700E000BF00BF7CBD000076
:1016500048020020180000201D000020100000207B
:101660001E0000201C00002058020020F0B585B0AC
:1016700005460C46012149022846FFF7F5FE0028E1
:101680002BD0FF2125312846FFF7D0FE002824D09B
:10169000FF2125312846FFF7D1FE81218900284608
:1016A000FFF7D8FEA07E002803D104212846FFF7CB
:1016B000E7FE0220694608702846FFF7ADFE03905A
:1016C000E17D68460172E06801900020E0752076B7
:1016D000684662682168904739E004212846FFF790
:1016E000C3FE002833D0FF2109312846FFF79EFEB4
:1016F00000282CD021462846FFF7CEFEE07D617EF3
:10170000884224D1207E00280ED0E668677E207EA5
:10171000E0752069E0600020207660763246394628
:101720002046FFF7DDFE12E0A07E002803D1042151
:101730002846FFF7A5FE812189002846FFF78AFE8B
:101740000020E075617EE2682046FFF7C9FEFF21B8
:101750001D312846FFF76AFE002814D0A08AA17D1B
:10176000884204DA21462846FFF7D9FE0BE0FF2124
:101770001D312846FFF762FEA07D002803D0A17D21
:101780002046FFF7E1FEFF2145312846FFF74EFED8
:10179000002815D0FF2145312846FFF74FFEA07ED7
:1017A000002803D000212846FFF76AFEE07D0028CC
:1017B00006D00020E075617EE2682046FFF790FECB
:1017C00005B0F0BD008000400000000000000003F4
:1017D000000000000B000000090000000A000000EB
:1017E000080000000000000000E0D701FFFFFFFF3D
:1017F000FFFFFFFFFFFFFFFFFFFFFFFF00000000F5
:101800000000000000E0D701030000003031323357
:101810003435363738394142434445464030580024
:101820003031323334353637383961626364656656
:1018300040307800040000080000000000000002B2
:1018400000010000100000006818000000000020E7
:101850002C00000004010000941800002C0000205F
:10186000AC12000020010000000000000000000099
:101870000000000000000000002000400000000008
:101880000000000000000000000000000000000058
:041890000024F4003C
:04000005000000C136
:00000001FF
