:020000040000FA
:10000000202C0020B5010000CF010000D10100002C
:1000100000000000000000000000000000000000E0
:10002000000000000000000000000000D3010000FC
:100030000000000000000000D5010000D701000012
:10004000D9010000D901000015090000D901000004
:10005000D901000000000000D9010000D901000012
:10006000A5070000D9010000D9010000D901000056
:10007000D9010000D9010000D9010000D901000018
:10008000D9010000D9010000D9010000D901000008
:10009000D9010000D9010000D9010000D9010000F8
:1000A000D9010000D901000000000000000000009C
:1000B0000000000000000000000000000000000040
:1000C00000F002F800F04BF80CA030C808382418F3
:1000D0002D18A246671EAB4654465D46AC4201D180
:1000E00000F03DF87E460F3E0FCCB6460126334267
:1000F00000D0FB1AA246AB46334318470824000041
:1001000028240000103A02D378C878C1FAD85207E0
:1001100001D330C830C101D504680C6070470000BD
:100120000023002400250026103A01D378C1FBD813
:10013000520700D330C100D50B60704710B5642959
:1001400002D100F097F810BD782902D100F0C8F86C
:1001500010BD002010BD1FB51FBD10B510BD00F0B3
:1001600047FA1146FFF7F7FF01F0CAF800F05FFA0F
:1001700003B4FFF7F2FF03BC00F064FA70B5054664
:100180000C46164602E00FCC0FC5103E102EFAD2D8
:10019000082E02D303CC03C5083E042E07D301CC9E
:1001A00001C5361F03E021782970641C6D1C761E82
:1001B000F9D270BD03210C4802680A4302600B4863
:1001C00002680A4302600A4880470A480047FEE77F
:1001D000FEE7FEE7FEE7FEE7FEE700000648074908
:1001E000074A084B704700002405004054050040B2
:1001F0003D070000C1000000201C0020202C002032
:1002000020240020202400200FB4054910B503AAA3
:10021000029800F0A9F910BC08BC04B0184700000F
:100220001000002070B5044685690068C10601D53C
:10023000302600E02026C00707D070BD6268304637
:10024000A1689047206A401C20626D1EF6D570BDE3
:1002500070B5044685690078C00707D170BD626833
:10026000A16820209047206A401C20626D1EF6D5B0
:1002700070BD0000F7B5002575291068009914A617
:1002800011D0C046C046002802DA404211A608E05C
:10029000009909688A0701D50FA602E0490704D52D
:1002A0000EA6012501E0C046C046009F0024243769
:1002B00004E000F06DF930313955641C0028F8D1A4
:1002C0002B4632462146009800F0F5F8FEBD0000AE
:1002D000000000002D0000002B00000020000000A6
:1002E00070B504460D4621461068C046C0462188B8
:1002F000090502D50F4A7A4402E00E4A7A440E32CA
:1003000023460021243305E006070009360F965DD9
:100310005E54491C0028F7D120780023000705D53A
:10032000702D03D0002901D002231132204600F0A5
:10033000C2F870BDCE210000F3B50446002081B0A4
:1003400020622046E168884700287DD0252802D019
:100350006268A16883E0454F00257F442046E1683C
:1003600088472028064608DB312E06D2B8192038E7
:100370000078002801D00543F0E7A80701D5042044
:1003800085430020E0610746A0612A2E0AD030464E
:1003900000F07EFC002827D0B8000019303E009005
:1003A000866119E00298BA00121902C891610290A0
:1003B0002046E1688847012F064617D1E0690028EA
:1003C0001FDA202085431CE000980A2180694843F9
:1003D00000998019303888612046E16888470646D0
:1003E00000F056FC0028EFD1012F0AD02E2E08D1A4
:1003F0002046E16888470646202005437F1C022FDF
:10040000C3DBA069002803DA4042A0610120054354
:10041000E80701D010208543002E24D03046413813
:10042000192803D80120C002054320362046256044
:100430003146029A1546FFF781FE00280CD00128AC
:1004400007D0ED1DE80800E00DE0C0000830029084
:1004500077E72D1D029574E762683046A1689047E2
:10046000206A401C6CE7206AFEBD0000922100005B
:1004700001E004C0091F0429FBD28B0701D50280CB
:10048000801CC90700D00270704700290BD0C30739
:1004900002D00270401C491E022904D3830702D5F2
:1004A0000280801C891EE3E70022EEE70022DFE7DE
:1004B000704770477047FFB504460D4681B0243041
:1004C00000902168880604D51022E06991432160DC
:1004D00000E00120A84201DD471B00E0002704984E
:1004E000A1697A191018081AA0612078C00602D4F0
:1004F0002046FFF797FE002608E003986268A1688F
:10050000805D9047206A401C761C206204988642D9
:10051000F3DB2078C0060AD52046FFF783FE06E00D
:100520006268A16830209047206A401C20623846EB
:100530007F1E0028F4DC07E000986268A168405D37
:100540009047206A401C206228466D1E0028F3DC7C
:100550002046FFF77DFE2078000602D5022005B078
:10056000F0BD0120FBE70000084B70B50D467B4451
:1005700000F027F80446284600F036F8002802D09C
:100580000020C04370BD204670BD0000170D000064
:1005900001468008081A02091018020A1018020CF5
:1005A0001018C008820012185200891A01E0401C7D
:1005B0000A390A29FBD2704701694A1C026108788E
:1005C000704700B58FB00291002105910549019354
:1005D00079440391114604906846FFF7ADFE0FB0D1
:1005E00000BD0000E5FFFFFFC068802108407047A4
:1005F000754600F023F8AE46050069465346C0082C
:10060000C000854618B020B5FFF7E8FD60BC0027A4
:100610004908B6460026C0C5C0C5C0C5C0C5C0C5CE
:10062000C0C5C0C5C0C5403D49008D4670470446A1
:10063000C046C0462046FFF79BFD000000487047BB
:10064000BC1B002001491820ABBEFEE726000200BB
:10065000704710B5152001F075F910BD10B51620C2
:1006600001F095F910BD10B5172001F06BF910BD20
:1006700010B5182001F08BF910BD10B5152001F050
:1006800055F9162001F052F9172001F04FF9182002
:1006900001F04CF9042001F049F90C2001F046F971
:1006A000FFF7D7FFFFF7DAFFFFF7DDFFFFF7E0FF08
:1006B00010BD000010B5002819DA1A4A03071B0FF5
:1006C000083B9B089B00D2588307DC0EFF23A34006
:1006D0009A438B071B0E8407E40EA3401A43114B69
:1006E0000407240F083CA408A4001A5118E00E4A7D
:1006F00003231B02D21883089B00D2588307DC0E09
:10070000FF23A3409A438B071B0E8407E40EA340EC
:100710001A43054B032424021B198408A4001A5110
:1007200010BD00001CED00E000E100E001480249BE
:10073000086070470024F4009400002010B500F019
:1007400021FE002805D0114811494860C8131149FD
:10075000886100F019FE002802D001200E4988604F
:1007600000F014FE00280ED00C480068012807D0C5
:100770000B480A49086000BF084800680128FBD1FF
:10078000C02006494861FFF7D1FF10BDDFFF07C059
:1007900000050040006C00400006004000EC0640F0
:1007A0007593000010B504220249034800F074FD5F
:1007B00010BD0000D40000200080004070B5054648
:1007C0000C460220204000280AD006480068401C41
:1007D0000449086000F022FD20460221484070BD17
:1007E0000020FCE79000002010B504460548047086
:1007F0000A220221007801F0A7FB03A0FFF704FD05
:1008000010BD0000890000200A5461736B5F4B65C6
:10081000795F496E69743B0070B505460C46E00788
:10082000C00F00280DD00848016808A0FFF7ECFCB5
:1008300005480068401C04490860204601214840E2
:1008400070BD0020FCE700008C0000200A5461739A
:100850006B5F5072696E7420436E74203D20256476
:100860003B00000010B50446054804707D22D2000C
:100870000121007801F068FB02A0FFF7C5FC10BD64
:10088000880000200A5461736B5F5072696E745F58
:10089000496E69743B00000070B504460D4600BF08
:1008A00000BF18480068401C1649086016480078C8
:1008B000401C1549087015480068401C1349086021
:1008C0002046FF384138002808D10321012000F0DC
:1008D0002BF80321022000F027F800E000BF00BF42
:1008E0000B480078012809D108480068002808D082
:1008F00000200649086001F07BFB02E0002003496C
:10090000086070BD68000020740000207C0000209A
:100910004900002010B50249024801F005FD10BD54
:10092000980000200020004070B505460C46012DBF
:1009300002D0022D20D10FE0002C03D1042001F0C1
:1009400001F808E0012C03D1042001F020F802E0B6
:10095000042001F028F810E0002C03D10C2000F056
:10096000F1FF08E0012C03D10C2001F010F802E0A7
:100970000C2001F018F800E000BF00BF70BD10B5FA
:1009800001F0F4FB10BD10B5FFF777FE00F028F979
:1009900000F0DCF800F03CF8FFF7F1FF10BD0000BC
:1009A00010B5044601A0FFF72FFC10BD0A4B657976
:1009B00031207570206576656E742E0010B5044682
:1009C00001A0FFF721FC10BD0A4B6579322075703C
:1009D000206576656E742E0010B5044601A0FFF701
:1009E00013FC10BD0A4B6579332075702065766560
:1009F0006E742E0010B5044601A0FFF705FC10BD73
:100A00000A4B657934207570206576656E742E000A
:100A100010B50321112000F070FF0321122000F017
:100A20006CFF0321132000F068FF0321142000F065
:100A300064FF03211E2000F060FF012300222249F1
:100A4000224800F0AEFB022300222149214800F099
:100A5000A8FB032300222049204800F0A2FB042326
:100A600000221F491F4800F09CFB052301221E495C
:100A70001E4800F096FB1E4A0121144800F050FA6F
:100A80001C4A0121134800F04BFA1B4A012113486C
:100A900000F046FA194A0121124800F041FA184ABA
:100AA0000121124800F03CFA084800F0A1FB094877
:100AB00000F09EFB094800F09BFB0A4800F098FB01
:100AC0000A4800F095FB10BD050B0000E01800205F
:100AD000150B00000C190020230B00003819002012
:100AE000310B0000641900203F0B0000901900201A
:100AF000A1090000BD090000D9090000F5090000A6
:100B0000C10B000010B5044600BF112000F026FF05
:100B1000C0B210BD10B50446122000F01FFFC0B2D5
:100B200010BD10B50446132000F018FFC0B210BD70
:100B300010B50446142000F011FFC0B210BD10B56E
:100B400004461E2000F00AFFC0B210BDF8B5002612
:100B500001241748174908600846174902681748D2
:100B600000F0A8FC064600BF3746002F04D000BFA7
:100B7000384600F0B1F800BF00BF00BF0F4A11684F
:100B8000052212028A18106900BF01467D22D20197
:100B90006243CA4000BF1546012003462A46002191
:100BA0000090064800F066FC044800F053FCF8BDD5
:100BB0009908000078000020A8240000A02400006C
:100BC00010B5044601A0FFF71FFB10BD0A546F7556
:100BD000636831207570206576656E742E000000A4
:100BE00030B58BB01822114905A8FFF7C7FA00BF2E
:100BF0000F480190FF20013002900E480390FF2023
:100C00000130049003230C4A01A905A800F0AAF8BA
:100C1000044600BF00BF2546002D04D000BF284673
:100C200000F05AF800BF00BF0BB030BDB024000088
:100C3000BC190020BC1A00202522000010B501F0CC
:100C400059F801220749084801F010F80222074923
:100C5000074801F00BF800F0E7FF01F059F901F047
:100C600091F910BD1908000065080000BD070000DB
:100C7000E907000030B47446641E2578641CAB425A
:100C800004D3635D5B00E31830BC18471D46F8E7EA
:100C900030380A2801D20120704700207047000038
:100CA00000BF00BF00BF00BF00BFBFF34F8F00BF3A
:100CB00000BF00BF06480749C86000BF00BF00BFB3
:100CC000BFF34F8F00BF00BF00BF00BF00BFFDE7F5
:100CD0000400FA0500ED00E03EB504460020009057
:100CE0000190029002946A4600210248FFF7D8FF63
:100CF0003EBD00000140000070B504460D46204690
:100D000000F0ABFA002805D02946204600F094FAFE
:100D1000002070BD0520FCE70346002901D10E200C
:100D20007047002A03D0501E1040002801D009202F
:100D3000F6E71960501E988000209860D86000BFC8
:100D4000EEE770B504460D46204600F086FAA1880D
:100D5000884205D82946204600F08DFA002070BD53
:100D60000420FCE7FFB589B004460D46174630481D
:100D70000760002D02D107200DB0F0BDA88882B217
:100D80002C482968FFF7C8FF064600BF002E01D097
:100D90003046F1E700BFA88982B22748A968FFF76B
:100DA000BBFF064600BF002E01D03046E4E700BF7F
:100DB0002022224901A8FFF7E1F960690790207C11
:100DC000002801D0012000E000206946087608A92B
:100DD0000C980870607C002801D00E2000E00020F4
:100DE00069464876E0680390A06804902068029005
:100DF00060680190124A01A9124800F0C7FB06463C
:100E000000BF002E01D03046B6E700BF00200E49DB
:100E100008702068401C002808D00A4800F03CFCFC
:100E200001220A49074800F0FDFBA5E70020A3E7DF
:100E300008000020B4000020C4000020802400002E
:100E40004D220000000000200E0000200D000020B8
:100E500070B5044621460C48FFF773FF0546002D88
:100E600010D10A4800F002FD00280BD108490648BD
:100E7000FFF742FF002805D101220549034800F091
:100E80008DFC0546284670BDC400002000000020EF
:100E90000C00002070B505460C462068401C002858
:100EA00005D0206800F067FD206800F033FD606821
:100EB000401C002803D00021606800F011FD286864
:100EC000A169052212028218516200BF617D227D54
:100ED00028680B461343052636028619F36600BFC1
:100EE00062682168286800F0CFFD207D012816D1B6
:100EF000A068401C002803D00021A06800F0F0FC8E
:100F0000E068401C002805D0E06800F034FDE0688F
:100F100000F000FDA268E168286800F093FD70BD54
:100F200010B58C0003460C331A5110BD70B5044641
:100F30002079A16888470546E0784007400F0028DF
:100F400002DD2088401C2080E078C009A8421CD027
:100F5000E07838218843E1788906490F491CC900A7
:100F6000382211400843E0708006400F032810DB50
:100F7000E07880218843E901802211400843E07035
:100F8000E07838218843E07003E0E0783821884336
:100F9000E070E0784007400F0300FFF76BFE0604A7
:100FA0002856ACFBD7FBE078C009E1784906C90FA9
:100FB000884216D1A078F0218843A070E06800280C
:100FC00002D02046E168884700202080A0780009F0
:100FD0000001401CA070E078C008C000401CE07018
:100FE00004E0A078F02188438030A070D7E0E0785A
:100FF000C009E1784906C90F884212D0A078F021D3
:1010000088431030A0702069002802D02046216952
:10101000884700202080E078C008C000801CE07075
:1010200012E02088C8280FDDA078F02188435030D6
:10103000A070206A002802D02046216A8847E07804
:10104000C008C000401DE070A9E0E078C009E17868
:101050004906C90F884225D1A078F0218843A070A5
:10106000E068002802D02046E1688847A0780007A1
:10107000000F0F2808D0A07800090001A178491CB2
:101080000907090F0843A0706069002802D02046B4
:101090006169884700202080E078C008C000C01C3B
:1010A000E07027E020883C2824DDA0780007000FAE
:1010B00001280BD1A078F02188433030A070A069BE
:1010C000002813D02046A16988470FE0A0780007C8
:1010D000000F02280AD1A078F02188434030A07088
:1010E000E069002802D02046E1698847E078C0081E
:1010F000C000E07053E0E078C009E1784906C90F0C
:1011000088421AD0A078F02188431030A07020695E
:10111000002802D020462169884720883C2807DA29
:1011200000202080E078C008C000801CE0700CE047
:10113000E078C008C000E07007E020883C2804DDAB
:10114000E078C008C000401CE07028E0E078C009EA
:10115000E1784906C90F88420BD1A078F021884375
:101160006030A070606A002812D02046616A88470B
:101170000EE0A078F02188431030A070206900288C
:1011800002D0204621698847E078C008C000E0709E
:1011900005E0FFE7E078C008C000E07000BF00BFD6
:1011A00070BDF8B504460E4615461F462C21204654
:1011B000FFF77CF9A078F02188438030A070A6600A
:1011C000E07880218843002D01D1012100E0002139
:1011D000C901802211400843E070E0784021884333
:1011E000A901402211400843E0702771F8BD0000BA
:1011F00001460948026805E08A4202D10020C04346
:101200007047926A002AF7D1034800688862024852
:1012100001600020F4E700005000002010B50548F0
:10122000046803E02046FFF781FEA46A002CF9D190
:1012300010BD00005000002070B504460D462A463F
:101240000021204600F00EF8A068401CA06070BD90
:1012500001468A68C868801A704701468A68C8686B
:10126000801A704710B583685B188488234004682F
:10127000E35C137010BDC26883881A4003689954F8
:10128000C268521CC260704770B504460D46E0B299
:10129000FFF7DEFD204670BDF7B582B004460E466E
:1012A000002728E0384600F095FB0546384600F058
:1012B00097FB0190204629464258002A01D001227E
:1012C00000E00022002A14D00198032109026118CD
:1012D00049680140002901D0012100E000210029D6
:1012E00007D02946204600F080FB28463268716806
:1012F0009047781CC7B204988742D3DB05B0F0BD95
:1013000010B500BF0A4800680A490860FFF73BFBB8
:1013100009A0FEF779FF074801680FA0FEF774FFE8
:1013200013A0FEF771FFFFF789FC002010BD00003D
:1013300000040040600000200A0A4D435520537409
:101340006172742072756E6E696E672D2D2D2D2D54
:101350002D2D2D3E0A0000000A52657365745F53FF
:101360006F75726365203D20307825303858000055
:101370000A48616420696E697469616C697A6564A0
:101380002E0A0000002070470020704700207047A0
:10139000002800D1704700BF00BF00BF00BF00BFE2
:1013A00000BF00BF00BF00BF07490968074A91425C
:1013B00000D101E000BF00BF01460139084600D05E
:1013C000EAE700BFE6E70000940000200024F400F4
:1013D00070B504460D4629462046FFF76BF900BF5D
:1013E000E106C90E012088400549086000BF00BF22
:1013F000E106C90E012088400249086000BF70BDA7
:1014000080E200E000E100E001460803020E50B275
:10141000704701460803020E50B27047F8B5054602
:101420000C4616461F46204600F0DAFA0090002FC0
:1014300004D02868009900F0E0FA03E028680099D9
:1014400000F0D6FA2B68A100152292019818465098
:1014500000BFF8BD10B504460021206800F0DAFA9C
:10146000022120790C225043014A8018017210BDDC
:10147000D4000020F8B505460E4617461C46FF224C
:101480000132B2400123B3401A431146286800F0EC
:10149000B9FA286801214902095821430122520260
:1014A000115000BF3A4631462846069BFFF7B6FF6B
:1014B000F8BD0000F7B582B004460D4620790C2136
:1014C000484331494618307A002803D00827384667
:1014D00005B0F0BD0498002802D107273846F7E789
:1014E0000498306068687060002001900BE00198FB
:1014F00000F070FA00902068009900F076FA0198E8
:10150000401CC0B20190617901988142EFDC2068F3
:10151000FFF77FFF0090E978FFF75AFF69782068AE
:10152000052212028218526852085200CB07DB0FC4
:101530001A4305231B02C3185A6000BFA97820680C
:101540000522120282189268920892008B079B0F64
:101550001A4305231B02C3189A6000BF297820682C
:101560000522120282181269120912010B071B0FC1
:101570001A4305231B02C3181A6100BF01203072F1
:1015800000273846A4E70000D4000020FEB5054639
:101590000E46174628791C2148432049441800204C
:1015A0000290E07E002803D0082002900298FEBD41
:1015B00031462846FFF76EFC67603069206060683E
:1015C000002818D0307F0190FF211D31286800F0DD
:1015D00036FAFF214531286800F031FA10492868B1
:1015E00000F03EFA2868FFF70FFF00900199FFF71F
:1015F000EFFE00BF00BF00BF2868042105221202D1
:101600008218116000BF00BF0020E0752076A07531
:101610000120E0760020A0760298C8E7980000201C
:1016200080000200FEB505460E46174628791C21AB
:10163000484318494418002000906068002804D0EE
:1016400081218900286800F006FAE07D002810D08A
:10165000207E00280BD06068002804D081218900FA
:10166000286800F0FDF9112001900198FEBD0120CD
:1016700000900098002804D1E775E6606076207637
:1016800001E0266127763A4631462846009B00F065
:101690001BF8EBE79800002010B5044620791C21C8
:1016A000484308494018807E002809D1204600F0B0
:1016B000D9FC012120791C225043024A80188176EE
:1016C00010BD000098000020FFB583B004462079CB
:1016D0001C21484330494518A87E002805D10698AA
:1016E000002802D1204600F0BDFC686800284AD1DD
:1016F000FF214531206800F0A2F900BF00BFFF21A3
:101700002531206800F093F90190FF21093120680C
:1017100000F08DF90290FF214531206800F087F933
:1017200006460298002804D1002E02D10198002814
:10173000E5D00198002801D1002E00D007E029460D
:10174000206800F05DFCE87D697E8842D6DC00BF41
:101750000020E8750198002803D00327384607B019
:10176000F0BD002E02D00F273846F8E7A87E0028EB
:1017700004D00021206800F084F903E004212068EF
:1017800000F07FF904E081218900206800F068F909
:1017900000273846E3E7000098000020F8B505462A
:1017A0000E46174628791C21484309494418284603
:1017B00000F05CF8002803D0112000900098F8BDDC
:1017C000A775A6600020A082284600F003F8F6E77F
:1017D0009800002070B5044620791C214843224916
:1017E00045180026FF211D31206800F028F9082146
:1017F000206800F046F92946206800F0EDFC686892
:1018000000282FD115E000BFFF211D31206800F016
:101810000EF9002804D1A88AFF2101318842F3D1B2
:10182000A88AFF210131884203D02946206800F0B0
:10183000D3FCA88AA97D8842E5DBA88AFF21013173
:10184000884201D10F260BE000BFFF211D31206827
:1018500000F0EDF80028F8D00C21206800F011F914
:101860000020A875304670BD980000200146087918
:101870001C225043044A8018807D002801D001209A
:1018800070470020FCE7000098000020F0B500BF82
:1018900005252D072C4655000D439E003543059E1A
:1018A00036023543069E36043543860007273F023D
:1018B000E719BD51F0BDF0B500BF05252D072C4639
:1018C00055000D439E003543059E36023543069E66
:1018D00036043543860007273F02E719BD51F0BDA6
:1018E0007CB505460C460020009023460246014682
:1018F00001902846FFF7CAFF7CBD7CB505460C4623
:101900000020009023460246014601902846FFF73A
:10191000D2FF7CBD1CB50446002000900346012286
:10192000114601902046FFF7B1FF1CBD1CB50446CF
:101930000020009003460122114601902046FFF747
:10194000BAFF1CBD00BF052109070A4601218140DD
:1019500005231B02D318D96000BF7047014600BFA2
:1019600005200007024600BF001510180069C84096
:10197000C007C00F704700BF052109070A460121B3
:10198000814005231B02D318996000BF704700BF38
:10199000052109070A460121814005231B02D318AE
:1019A000996000BF704710B500BF05231B0719469B
:1019B0001B15CB185A680123834093430524240246
:1019C0000C19A360012383401340052424020C1941
:1019D000E36010BD01468800FF30413080B270479F
:1019E00001460120000488407047002242507047A1
:1019F0000322120282189160704703221202821899
:101A0000516070470122520212588A4301235B023F
:101A10001A50704701224250704701460922D201F4
:101A20008A1810680922D2018A181060704702468D
:101A30005058002801D0012070470020FCE7002208
:101A40004250704705231B02C318996005231B02EF
:101A5000C3181A61704703221202821891607047FE
:101A600003221202821851607047024603200002CE
:101A7000101840680840002801D00120704700205D
:101A8000FCE701224250704705231B02C3185A612C
:101A900005231B02C318D96070470000F7B507463D
:101AA00016463846019900F039F80446002C02D059
:101AB000A6802046FEBD0C2000F02AF90446002C2A
:101AC00017D027720198E080A680002020606081F6
:101AD00009480068002802D10748046007E006486A
:101AE000056800E02D6828680028FBD12C6020469E
:101AF000E0E70020DEE70000440000200246064840
:101B0000016805E0087B904201D1084670470968EA
:101B10000029F7D10020F9E71C0000200246074BFE
:101B2000186807E0C3888B4203D1037A934200D13F
:101B300002E000680028F5D100BF70474400002093
:101B40000648016805E0C889002801D008467047AA
:101B500009680029F7D10020F9E700001C000020E7
:101B600000B5012005490870002000F035FA00207A
:101B7000034908700349086000BD000048000020C8
:101B8000490000204C000020F8B5064624480068B3
:101B90008019234908602348006800283ED0214866
:101BA0000468002738E00025A088B04202DC00204D
:101BB000A08002E0A088801BA080A08800280BD114
:101BC0006089002808D0E088002805D0E188207AC4
:101BD00000F0A8F96089A080A088002802D0E088E1
:101BE00000280AD1002F03D10E492068086001E0C7
:101BF000206838602546246801E027462468002DC7
:101C000009D0A888002803D1E988287A00F08AF949
:101C1000284600F01BF900BF002CC4D1F8BD00001D
:101C20004C0000204400002010B50E4800680E490A
:101C3000086010E00C4800684068002806D00A4A96
:101C40001268107B084A1268516888470648006885
:101C5000006805490860044800680028EAD1024984
:101C6000086010BD1C00002020000020F7B50746CA
:101C7000102000F04DF80446002C25D06760019834
:101C8000A06012480078207310480078401C0F496B
:101C900008700020E08102986073002020600C4EE4
:101CA000304605680B480078401C0A49087008E077
:101CB000607B697B884202DD25603460FEBD2E4674
:101CC0002D68002DF4D1346000BFF7E72400002018
:101CD0001C00002025000020002003490860034963
:101CE00008600349087070471C0000202000002095
:101CF0002400002010B500F0D1F80020034908604E
:101D0000FFF72EFFFFF7E8FF012010BD18000020AD
:101D1000F8B505460020009044480078E22801D03C
:101D200000F0BCF8281D85B2A807800F002803D05A
:101D30000421091A49198DB2102D02DC3C480468AF
:101D400001E03C480468208886B200BF0120C0033F
:101D50003040002805D00120C003464000200090FC
:101D60001DE00098002814D033480088401E3249F6
:101D7000088032480088401E304908803868216851
:101D8000401838603868A84209D33C46208886B29B
:101D90000DE0AE4200DB0AE0012000902746A419C6
:101DA000208886B2002E01D1002400E0CEE700BFDB
:101DB000002C38D0701B86B2042E19DB6019066027
:101DC0000121C903294321601B490988491C1A4A7A
:101DD00011801B4909881288914203DA1649098843
:101DE000174A1180174909884919164A11800FE0CE
:101DF0002088144909884018124908800F48008833
:101E0000401E0E4908800121C90320680843206054
:101E10000D4800880B490988884203DA0948008880
:101E200009490880241D2046F8BD00002800002034
:101E30002C000020300000203A0000203C00002050
:101E4000380000203E0000204000002070B505460C
:101E50000E480078E22801D000F020F82C1F012164
:101E6000C90320688843206009480068A04201D95E
:101E700007480460208807490988081A054908802E
:101E800005480088401C0449088070BD28000020D7
:101E90002C0000203E0000203C00002010B514481B
:101EA00000680321C9024018041F00202060104868
:101EB0000468E82020600E4800680446E8340D48B5
:101EC0002060E2200C4908700C4804600020FFF7F5
:101ED0001FFF0B4908600648006808490860022097
:101EE000084908800849088000200849088010BD7A
:101EF0003400002014170000280000202C000020CF
:101F0000300000203C0000203A0000203E0000206D
:101F10000248006802490860704700003000002055
:101F20002C00002030B505460C462846FFF7E6FD9C
:101F30000346002B03D0D8892043D88101E002203A
:101F400030BD0120FCE70000F8B506460F461546F7
:101F50002A4639463046FFF7A1FD0446002C00D042
:101F60006581002C06D006480078002802D10120A7
:101F700000F032F8002C01D00120F8BD0520FCE76C
:101F80004900002024E0FFF7DBFD12490860084605
:101F9000006800281CD008460068C4890020096831
:101FA000C881002C14D00B480068806800280FD02E
:101FB00008490968087B074909688A6821469047EB
:101FC000054604480068C089284302490968C88159
:101FD000D9E700002000002000B50146084600F0C7
:101FE00005F80148017000BD49000020704700005D
:101FF00010B502480078FFF7C7FD10BD480000206B
:1020000070B505460C46E07D00280AD1FF21093154
:102010002846FFF714FD00BF05200002281880693C
:1020200070BDFF2109312846FFF709FD00BF0520DB
:10203000000228188069C0B2627EE1688854607E20
:10204000401C607600BFEBE77FB504460D461646A0
:102050000120694608706846057201966268216829
:1020600090477FBD10B50446FF2125312068FFF75A
:10207000E6FCFF2109312068FFF7E1FC0021206820
:10208000FFF7FFFC10BD0000F8B5354805680020DB
:10209000334908600805072109024018866B31485A
:1020A0000521090707221202891888630520000705
:1020B00011464018406E00902A48052109078918EA
:1020C000486600BF012040062749886000BF00BF66
:1020D000C012886000BF0420FFF75AF92248006947
:1020E0008001C00F002807D01F4800694004C00FBE
:1020F000002801D0012422E00024122719E000BFAB
:10210000012080031849C86000BF0420FFF740F990
:1021100000BF012080031449886000BF0420FFF73E
:1021200037F9114800698001C00F002801D001244F
:1021300003E038467F1E0028E1D100BF00BF052024
:1021400000070721090240188663052109070722B5
:102150001202891800984866014805602046F8BDBB
:10216000004500400D0600000005005010B5154860
:10217000052109070722120289188863052109072A
:1021800089184866002010498860C8610E200F49F0
:1021900088601920C8603320C00448620A4838307B
:1021A0000B4908610848E4380A495122120189188C
:1021B0004860012006498860052004490860FFF74F
:1021C00063FF10BD0C0600000041004000450040C8
:1021D00000F5014000F0014070B505460C46FF21B6
:1021E0001D312846FFF72BFCA18AA068465CA08A17
:1021F000401CA0823046052109026918C86100BF51
:1022000070BD7FB504460D460020694608706846DB
:102210000572A06801900020A07568466268216878
:1022200090477FBD10B504462078022804D100BF36
:102230006068FEF751FD07E02078012804D100BF57
:102240006068FEF749FD00BF10BD00007CB5044684
:102250000E462078002841D0012802D0022851D112
:102260002DE0606801782948FEF76BFD0546002DDA
:1022700008D001206946087001956846244909681C
:1022800088470BE02148FEF7E3FF002806D0002036
:102290006946087068461E49096888471B48FEF76A
:1022A000D7FF1A498988884205D8012219491A4856
:1022B000FFF7B8F902E001201849087023E0022076
:1022C00069460870E0680190012212491248FFF740
:1022D000A9F968460E490968884714E01049114871
:1022E000FEF70AFD002805D101220D490A48FFF733
:1022F00055FA06E0032069460870684604490968F3
:10230000884700E000BF00BF7CBD0000B400002093
:10231000080000200D000020000000200E0000201A
:102320000C000020C4000020F0B585B005460C4626
:10233000012149022846FFF798FB00282BD0FF21F6
:1023400025312846FFF773FB002824D0FF212531D3
:102350002846FFF774FB812189002846FFF77BFBA5
:10236000A07E002803D104212846FFF78AFB022023
:10237000694608702846FFF750FB0390E17D6846E8
:102380000172E06801900020E0752076684662687E
:102390002168904739E004212846FFF766FB0028B2
:1023A00033D0FF2109312846FFF741FB00282CD00C
:1023B00021462846FFF724FEE07D617E884224D135
:1023C000207E00280ED0E668677E207EE0752069BA
:1023D000E060002020766076324639462046FFF7DE
:1023E00033FE12E0A07E002803D104212846FFF727
:1023F00048FB812189002846FFF72DFB0020E0756E
:10240000617EE2682046FFF71FFEFF211D3128464E
:10241000FFF70DFB002814D0A08AA17D884204DAC2
:1024200021462846FFF7D8FE0BE0FF211D31284644
:10243000FFF705FBA07D002803D0A17D2046FFF714
:10244000E0FEFF2145312846FFF7F1FA002815D0BC
:10245000FF2145312846FFF7F2FAA07E002803D07D
:1024600000212846FFF70DFBE07D002806D0002064
:10247000E075617EE2682046FFF7E6FD05B0F0BD3D
:10248000FFFFFFFFFFFFFFFFFFFFFFFFFFFFFFFF5C
:10249000000000000000000000E0D7010300000081
:1024A0000080004000000000000000030000000069
:1024B0000B000000090000000A00000008000000F6
:1024C0000000000000E0D7013031323334353637B8
:1024D0003839414243444546403058003031323368
:1024E0003435363738396162636465664030780068
:1024F00004000008000000000000000200010000CD
:1025000010000000242500000000002098000000BA
:1025100004010000BC25000098000020882B00006A
:10252000200100000020004000000000000000002A
:10253000000000000000000000000000000000009B
:10254000000000000000000000000000000000008B
:102550000000000000000000E0000020000000007B
:10256000000000000000000000000000000000006B
:102570000000000000000000141901021502010211
:10258000030304040000000000000000000000003D
:10259000000000007C0000000000000000000000BF
:1025A000000000000000000000000000000000002B
:0C25B00000000000000000000024F40007
:04000005000000C136
:00000001FF
