:020000040000FA
:1000000018140020C1010000DB010000DD01000028
:1000100000000000000000000000000000000000E0
:10002000000000000000000000000000DF010000F0
:100030000000000000000000E1010000E3010000FA
:10004000E5010000E50100008D080000E501000069
:10005000E501000000000000E5010000E5010000EE
:100060002D080000E5010000E5010000E5010000A9
:10007000E5010000E5010000E5010000E5010000E8
:10008000E5010000E5010000E5010000E5010000D8
:10009000E5010000E5010000E5010000E5010000C8
:1000A000E5010000E5010000000000000000000084
:1000B0000000000000000000000000000000000040
:1000C00000F002F800F050F80CA030C808382418EE
:1000D0002D18A246671EAB4654465D46AC4201D180
:1000E00000F042F87E460F3E0FCCB6460126334262
:1000F00000D0FB1AA246AB4633431847942E0000AB
:10010000B42E0000103A02D378C878C1FAD852074A
:1001100001D330C830C101D504680C6070470000BD
:100120000023002400250026103A01D378C1FBD813
:10013000520700D330C100D50B60704710B5642959
:1001400002D100F0C5F810BD782902D100F0F6F810
:1001500010BD632902D100F03FFA10BD002010BD90
:100160001FB51FBD10B510BD00F086FA1146FFF790
:10017000F7FF01F0D7FE00F09EFA03B4FFF7F2FF9D
:1001800003BC00F0A3FA000070B505460C46164605
:1001900002E00FCC0FC5103E102EFAD2082E02D36B
:1001A00003CC03C5083E042E07D301CC01C5361F7E
:1001B00003E021782970641C6D1C761EF9D270BD95
:1001C00003210C4802680A4302600B4802680A4394
:1001D00002600A4880470A480047FEE7FEE7FEE75C
:1001E000FEE7FEE7FEE7000006480749074A084B1E
:1001F000704700002405004054050040C50700007A
:10020000C10000001804002018140020180C002061
:10021000180C00200FB4054910B503AA029800F08D
:10022000E7F910BC08BC04B018470000100000201B
:1002300070B5044685690068C10601D5302600E026
:100240002026C00707D070BD62683046A16890477D
:10025000206A401C20626D1EF6D570BD70B5044644
:1002600085690078C00707D170BD6268A168202049
:100270009047206A401C20626D1EF6D570BD70B597
:100280000C460546012A05D02878800600D5EA6983
:10029000002302E0012305E05B1C934202D2E05CF4
:1002A0000028F9D1A869E618C01AA861286AC01800
:1002B00028622846FFF7BCFF04E06A682078A96836
:1002C000641C9047B442F8D32846FFF7C7FF70BDBF
:1002D000F7B5002575291068009914A611D0C046FD
:1002E000C046002802DA404211A608E000990968D9
:1002F0008A0701D50FA602E0490704D50EA60125FD
:1003000001E0C046C046009F0024243704E000F00E
:1003100083F930313955641C0028F8D12B46324618
:100320002146009800F0F5F8FEBD00000000000036
:100330002D0000002B0000002000000070B50446D6
:100340000D4621461068C046C0462188090502D5E1
:100350000F4A7A4402E00E4A7A440E3223460021C4
:10036000243305E006070009360F965D5E54491CEC
:100370000028F7D120780023000705D5702D03D081
:10038000002901D002231132204600F0C2F870BDCE
:10039000FE2B0000F3B50446002081B02062204609
:1003A000E168884700287DD0252802D06268A168CE
:1003B00083E0454F00257F442046E1688847202898
:1003C000064608DB312E06D2B819203800780028FE
:1003D00001D00543F0E7A80701D50420854300209C
:1003E000E0610746A0612A2E0AD0304601F026FAC5
:1003F000002827D0B8000019303E0090866119E02F
:100400000298BA00121902C8916102902046E16870
:100410008847012F064617D1E06900281FDA2020FF
:1004200085431CE000980A2180694843009980199F
:10043000303888612046E1688847064601F0FEF9B9
:100440000028EFD1012F0AD02E2E08D12046E168D6
:1004500088470646202005437F1C022FC3DBA06986
:10046000002803DA4042A06101200543E80701D0DB
:1004700010208543002E24D030464138192803D857
:100480000120C00205432036204625603146029AED
:100490001546FFF753FE00280CD0012807D0ED1DAC
:1004A000E80800E00DE0C0000830029077E72D1D5D
:1004B000029574E762683046A1689047206A401C44
:1004C0006CE7206AFEBD0000C22B000001E004C002
:1004D000091F0429FBD28B0701D50280801CC907A4
:1004E00000D00270704700290BD0C30702D0027001
:1004F000401C491E022904D3830702D50280801CB8
:10050000891EE3E70022EEE70022DFE7704770472D
:100510007047FFB504460D4681B024300090216835
:10052000880604D51022E0699143216000E0012093
:10053000A84201DD471B00E000270498A1697A1951
:100540001018081AA0612078C00602D42046FFF7D0
:100550006FFE002608E003986268A168805D9047FE
:10056000206A401C761C206204988642F3DB2078C7
:10057000C0060AD52046FFF75BFE06E06268A16868
:1005800030209047206A401C206238467F1E002899
:10059000F4DC07E000986268A168405D9047206A3B
:1005A000401C206228466D1E0028F3DC2046FFF721
:1005B00055FE2078000602D5022005B0F0BD0120CE
:1005C000FBE710B54369002B02D0C046C04601E0EE
:1005D000FFF755FE012010BD1278014624310A7044
:1005E00000224A700122ECE711680022D243E8E7BA
:1005F000084B70B50D467B4400F027F804462846AA
:1006000000F036F8002802D00020C04370BD20461C
:1006100070BD0000B318000001468008081A0209E6
:100620001018020A1018020C1018C00882001218C4
:100630005200891A01E0401C0A390A29FBD270478E
:1006400001694A1C02610878704700B58FB00291B9
:1006500000210591054901937944039111460490C5
:100660006846FFF797FE0FB000BD0000E5FFFFFFF3
:10067000C068802108407047754600F023F8AE46F8
:10068000050069465346C008C000854618B020B52D
:10069000FFF7AAFD60BC00274908B6460026C0C582
:1006A000C0C5C0C5C0C5C0C5C0C5C0C5C0C5403D2A
:1006B00049008D4670470446C046C0462046FFF7B5
:1006C0005CFD000000487047B40300200149182079
:1006D000ABBEFEE726000200704710B5152001F002
:1006E00081FF10BD10B5162001F0A1FF10BD10B59F
:1006F000172001F077FF10BD10B5182001F097FF0B
:1007000010BD10B5152001F061FF162001F05EFF4D
:10071000172001F05BFF182001F058FF042001F0C2
:1007200055FF0C2001F052FFFFF7D7FFFFF7DAFF6C
:10073000FFF7DDFFFFF7E0FF10BD000010B5002858
:1007400019DA1A4A03071B0F083B9B089B00D25873
:100750008307DC0EFF23A3409A438B071B0E8407FD
:10076000E40EA3401A43114B0407240F083CA408CD
:10077000A4001A5118E00E4A03231B02D218830862
:100780009B00D2588307DC0EFF23A3409A438B07BC
:100790001B0E8407E40EA3401A43054B03242402D6
:1007A0001B198408A4001A5110BD00001CED00E0C4
:1007B00000E100E001480249086070470024F400AD
:1007C0004C00002010B501F02DFC002805D0114888
:1007D00011494860C8131149886101F025FC0028BF
:1007E00002D001200E49886001F020FC00280ED0C4
:1007F0000C480068012807D00B480A49086000BF70
:10080000084800680128FBD1C02006494861FFF76D
:10081000D1FF10BDDFFF07C000050040006C0040A5
:100820000006004000EC06407593000010B504225D
:100830000249034801F042FB10BD00008C0000207B
:100840000080004070B504460D4600BF00BF0D4853
:100850000068401C0B4908600B480078401C0A499E
:1008600008702046FF384138002808D103210120B4
:1008700000F016F80321022000F012F800E000BF9B
:1008800000BF70BD300000203C00002010B50249C0
:10089000024802F00FFA10BD500000200020004076
:1008A00070B505460C46012D02D0022D20D10FE077
:1008B000002C03D1042001F095FE08E0012C03D1A7
:1008C000042001F0B4FE02E0042001F0BCFE10E0C0
:1008D000002C03D10C2001F085FE08E0012C03D18F
:1008E0000C2001F0A4FE02E00C2001F0ACFE00E0C0
:1008F00000BF00BF70BD10B501F0F2FF10BD0000D9
:10090000F0B585B006460025772E4AD1F748006835
:10091000401CF6490860D020F5490870F34800787B
:100920004870F24800880004000E88700320C870E8
:10093000EE4800880004000E0871EC480078487109
:100940000620EC49087001230622E949262002F01E
:1009500085F80546002D1FD0E5484079E44909791E
:10096000E34AD278009201910290E148837842787C
:100970000178E1A0FFF74EFCDD4800790002DC4B76
:100980005B79C218DA4840780002D94B9B78C118CD
:10099000E8A0FFF73FFC36E32946ECA0FFF73AFC5E
:1009A000F9E7722E27D1EC20D14908700520487054
:1009B00001230222262002F051F8054601231222CB
:1009C000CB49272002F04AF80543002D0ED0EBA0BA
:1009D000FFF720FC002406E0C548015DEBA0FFF70F
:1009E00019FC601CC4B2122CF6DBD4E72946D7A050
:1009F000FFF710FCCFE7522E32D13620BC490870E9
:100A00001520487001230222262002F027F805460F
:100A1000EC20B749087005204870012302222620E7
:100A200002F01CF8054601231222B149272002F0EA
:100A300015F80543002D0ED0D0A0FFF7EBFB0024E6
:100A400006E0AB48015DD1A0FFF7E4FB601CC4B237
:100A5000122CF6DB9FE72946BCA0FFF7DBFB9AE7E9
:100A6000312E42D13620A24908701520487002204C
:100A7000A04908700123084602789D49262001F00C
:100A8000EDFF0546EC209A490870052048700220C9
:100A9000984908700123084602789549262001F0FC
:100AA000DDFF05461220BC49087001230846027884
:100AB0008F49272001F0D2FF0543002D10D0AFA0B1
:100AC000FFF7A8FB002406E08948015DAFA0FFF70F
:100AD000A1FB601CC4B2B04800788442F4DB5AE742
:100AE00029469AA0FFF796FB55E7322E32D1EC202B
:100AF0007F4908700520487002207E490870012354
:100B0000084602787A49262001F0A8FF05461220FF
:100B1000A14908700123084602787549272001F091
:100B20009DFF0543002D10D09CA0FFF773FB002410
:100B300006E06F48015D95A0FFF76CFB601CC4B236
:100B4000954800788442F4DB25E729467FA0FFF72B
:100B500061FB20E7332E33D1362065490870082029
:100B60004870002088701920C87002216048801CDD
:100B700001F026FE07465E48077105205D490870B2
:100B80000123084602785A49262001F067FF0546EE
:100B9000002D10D085A0FFF73DFB002406E054484F
:100BA000015D7AA0FFF736FB601CC4B251480078A3
:100BB0008442F4DBEFE6294664A0FFF72BFBEAE66C
:100BC000342E27D136204A4908700320487002206D
:100BD000484908700123084602784549262001F05B
:100BE0003DFF0546002D10D074A0FFF713FB002435
:100BF00006E03F48015D65A0FFF70CFB601CC4B236
:100C00003C4800788442F4DBC5E629464FA0FFF754
:100C100001FBC0E6352E42D136203549087015203B
:100C20004870022033490870002308460278304992
:100C3000262001F013FF0546EC202D490870052001
:100C4000487002202B490870002308460278284982
:100C5000262001F003FF054612204F4908700123AA
:100C6000084602782249272001F0F8FE0543002DAE
:100C700010D056A0FFF7CEFA002406E01C48015D14
:100C800042A0FFF7C7FA601CC4B243480078844210
:100C9000F4DB80E629462DA0FFF7BCFA7BE6362E72
:100CA00021D1EC201249087005204870022011491A
:100CB00008700023084602780D49262001F0CEFE78
:100CC0000546122034490870012308460278084975
:100CD000272001F0C3FE0543002D05D03FA0FFF7FC
:100CE00099FA002489E093E08CE00000480000209D
:100CF00074030020440000200A577269746520487C
:100D0000455820203078253032582C203078253036
:100D100032582C203078253032582C20307825302D
:100D200032582C203078253032582C20307825301D
:100D300032582C00090944617461312C0925642C56
:100D40000944617461322C0925642C000A4932433C
:100D50003A204572726F652C207477695F6D6173FC
:100D60007465725F7472616E7366657228293B20C8
:100D700072657475726E2025642C00000A526561DC
:100D80006431204845582C200000000009307825A7
:100D90003032582C00000000450000200A526561E6
:100DA0006432204845582C20000000000A57726920
:100DB000746533204845582C200000000A5772699A
:100DC000746534204845582C200000000A526561A3
:100DD0006435204845582C20000000000A52656107
:100DE0006436204845582C2000000000FE48015D74
:100DF000FE48FFF70FFA601CC4B2FD480078844239
:100E0000F4DB71E32946F9484038FFF703FA6BE356
:100E1000612E5DD11120F4490870882048700220AD
:100E2000F44908700DE0F3480078801EF249085C30
:100E3000ED49F04A12788854EE480078401CED499C
:100E40000870EC4800780E28EDDB0221E648801C93
:100E500000F0F2FF0390E449039808710221E24890
:100E6000401D00F0E9FF0390DF480399C1710221A2
:100E7000083000F0E1FF0390DB4803998172022102
:100E80000B3000F0D9FF0390D74803994173012339
:100E9000D8480278D449262001F0E0FD0546002D0F
:100EA00010D0D6A0FFF7B6F9002406E0CE48015DC9
:100EB000CE48FFF7AFF9601CC4B2CE480078844238
:100EC000F4DB11E32946C9484038FFF7A3F90BE3E7
:100ED000622E33D11120C4490870082048700220C6
:100EE000C4490870012308460278BF49262001F052
:100EF000B5FD05460C20BE4908700123084602785E
:100F0000B949272001F0AAFD0543002D10D0BFA04C
:100F1000FFF780F9002406E0B348015DB348FFF70E
:100F200079F9601CC4B2B24800788442F4DBDBE299
:100F30002946AE484038FFF76DF9D5E2632E33D12C
:100F40001020A9490870012048700220A9490870A2
:100F5000012308460278A449262001F07FFD0546BA
:100F60000920A34908700123084602789E492720DA
:100F700001F074FD0543002D10D0A8A0FFF74AF939
:100F8000002406E09848015D9848FFF743F9601C8B
:100F9000C4B2974800788442F4DBA5E2294693481E
:100FA0004038FFF737F99FE2642E33D111208E4984
:100FB00008700920487002208E49087001230846F5
:100FC00002788949262001F049FD05461820884904
:100FD00008700123084602788349272001F03EFD6E
:100FE0000543002D10D091A0FFF714F9002406E06E
:100FF0007D48015D7D48FFF70DF9601CC4B27C4857
:1010000000788442F4DB6FE2294678484038FFF7E5
:1010100001F969E2652E7DD111207349087089209C
:101020004870864F380E88703802000EC870022152
:101030006D48801C00F000FF03906B490398087115
:101040003804000E48718F7102216748401D00F07E
:10105000F3FE039064480399C17100BF380E6249E2
:1010600008723802000E487202215F48083000F012
:10107000E3FE03905C48039981723804000E5A49DC
:10108000C8720F73022158480B3000F0D5FE039050
:1010900055480399417300BF380E5349887338028D
:1010A000000EC873022150480E3000F0C5FE0390B8
:1010B0004D48039901743804000E4B4948748F74ED
:1010C00002214948113000F0B7FE039046480399C9
:1010D000C17400BF380E444908753802000E4875C7
:1010E00002214148143000F0A7FE03903E480399C6
:1010F00081753804000E3C49C8750F7602213A48C4
:10110000173000F099FE03903748039941761A2072
:10111000384900E021E0087001230846027832498E
:10112000262001F09BFC0546002D10D044A0FFF7BF
:1011300071F8002406E02C48015D2C48FFF76AF89E
:10114000601CC4B22B4800788442F4DB04E02946DA
:1011500026484038FFF75EF8C6E1662E32D11120EE
:10116000214908704870022022490870012308466E
:1011700002781D49262001F071FC054603201C4918
:1011800008700123084602781749272001F066FC01
:101190000543002D10D025A0FFF73CF8002406E001
:1011A0001148015D1148FFF735F8601CC4B21048C2
:1011B00000788442F4DB97E129460C484038FFF779
:1011C00029F891E1672E74D1112007490870912008
:1011D00048701F4807680068401C1D4908600249A4
:1011E0008F70CF70022135E0740300208C0D000059
:1011F00045000020440000201C0000200A577269AE
:1012000074652061204845582C2000000A52656111
:10121000642062204845582C200000000A52656175
:10122000642063204845582C200000000A52656164
:10123000642064204845582C2000000000A894C376
:101240000A57726974652065204845582C200000B3
:1012500048000020A54800F0EFFD0390A349891E37
:10126000039808710520A2490870012308460278F6
:101270009E49891E262001F0F1FB0546002D11D064
:101280009C48FEF7C7FF002407E09848801E015DD8
:101290009948FEF7BFFF601CC4B2954800788442AD
:1012A000F3DB04E0294694484038FEF7B3FF1BE126
:1012B000FFE7682E36D1D5208C49891E08700120A1
:1012C0008B4908700123084602788849891E262028
:1012D00001F0C4FB05460320884908700123084635
:1012E00002788249891E272001F0B8FB0543002DB2
:1012F00012D0314682A0FEF78DFF002407E07B4824
:10130000801E015D7C48FEF785FF601CC4B27B48EF
:1013100000788442F3DBE7E0294677484038FEF75F
:1013200079FFE1E0692E68D1D0207049891E0870EC
:1013300001206F4908700123084602786B49891E15
:10134000262001F08BFB054606206C49087001231E
:10135000084602786549891E272001F07FFB054376
:10136000002D44D0314666A0FEF754FF002407E06C
:101370005E48801E015D6048FEF74CFF601CC4B2F1
:101380005E4800788442F3DB0027012406E05748DA
:10139000801E005DC019C7B2601CC4B257480078F7
:1013A0008442F4DBFF204740781CC7B24F48801EC0
:1013B0000078B84204D1394655A0FEF72BFF03E070
:1013C000394658A0FEF726FF4848801E4078029014
:1013D0000298000202904548801E81780298081801
:1013E00080B2029054A00299FEF714FF04E029464F
:1013F00041484038FEF70EFF76E06A2E74D1FF2098
:10140000F530002800D116E000BF00BF00BF00BFCC
:1014100000BF00BF00BF00BF00BF4B4909684B4A77
:10142000914200D101E000BF00BF014601390846EA
:1014300000D0EAE700BF03203049087001230846C6
:1014400002782A49891E272001F008FB0546002D55
:1014500044D031462AA0FEF7DDFE002407E02348F1
:10146000801E015D2448FEF7D5FE601CC4B22348EF
:1014700000788442F3DB0027012406E01B48801E2D
:10148000005DC019C7B2601CC4B21C480078844219
:10149000F4DBFF204740781CC7B21448801E007858
:1014A000B84204D139461AA0FEF7B4FE03E039462B
:1014B0001CA0FEF7AFFE0D48801E407802900298F7
:1014C000000202900948801E81780298081880B2B4
:1014D000029019A00299FEF79DFE04E029460648F5
:1014E0004038FEF797FE00BF05B0F0BD7603002040
:1014F00044000020401200008C0D00004500002038
:101500000A52656164202563204845582C2000005C
:101510000943686B203D203078253032582C094F24
:101520004B2C00000943686B203D20307825303279
:10153000582C094E472C00000964617461312C0954
:1015400025642C09000000004C0000200024F40059
:1015500010B5FFF7D6F800F035F900F0E9F800F023
:101560003BF8FFF7C8F910BD10B5044601A0FEF71F
:1015700051FE10BD0A4B6579312075702065766586
:101580006E742E0010B5044601A0FEF743FE10BD98
:101590000A4B657932207570206576656E742E0071
:1015A00010B5044601A0FEF735FE10BD0A4B657963
:1015B00033207570206576656E742E0010B5044674
:1015C00001A0FEF727FE10BD0A4B65793420757027
:1015D000206576656E742E0010B50321112000F091
:1015E000DCFF0321122000F0D8FF0321132000F0BC
:1015F000D4FF0321142000F0D0FF03211E2000F0AF
:10160000CCFF012300222249224800F0CAFB02231A
:1016100000222149214800F0C4FB03230022204975
:10162000204800F0BEFB042300221F491F4800F0A1
:10163000B8FB052301221E491E4800F0B2FB1E4ADA
:101640000121144800F06CFA1C4A0121134800F0F3
:1016500067FA1B4A0121134800F062FA194A012176
:10166000124800F05DFA184A0121124800F058FAB9
:10167000084800F0BDFB094800F0BAFB094800F03B
:10168000B7FB0A4800F0B4FB0A4800F0B1FB10BDFC
:10169000E916000098000020F9160000C4000020A0
:1016A00007170000F0000020151700001C010020A3
:1016B000231700004801002069150000851500006F
:1016C000A1150000BD150000A517000010B50548C4
:1016D0000078052804DB00200249087000F09EFB1A
:1016E00010BD00003C00002010B5044600BF1120D2
:1016F00000F084FFC0B210BD10B50446122000F007
:101700007DFFC0B210BD10B50446132000F076FF77
:10171000C0B210BD10B50446142000F06FFFC0B277
:1017200010BD10B504461E2000F068FFC0B210BD09
:10173000F8B50026012417481749086008461749DC
:101740000268174800F006FD064600BF3746002F26
:1017500004D000BF384600F095F800BF00BF00BFBE
:101760000F4A1168052212028A18106900BF01464B
:101770007D22D2016243CA4000BF154601200346C4
:101780002A4600210090064800F0C4FC044800F0FE
:10179000B1FCF8BD4508000040000020342E0000D8
:1017A0002C2E000010B5044601A0FEF733FD10BD3D
:1017B0000A546F75636831207570206576656E74A4
:1017C0002E00000030B58BB01822114905A8FEF795
:1017D000DBFC00BF0F480190FF20013002900E4853
:1017E0000390FF200130049003230C4A01A905A8AF
:1017F00000F0B8F8044600BF00BF2546002D04D015
:1018000000BF284600F03EF800BF00BF0BB030BD5F
:101810003C2E00007401002074020020B12B000057
:1018200030B47446641E2578641CAB4204D3635DF7
:101830005B00E31830BC18471D46F8E730380A282B
:1018400001D20120704700207047000000BF00BF98
:1018500000BF00BF00BFBFF34F8F00BF00BF00BF7E
:1018600006480749C86000BF00BF00BFBFF34F8FE5
:1018700000BF00BF00BF00BF00BFFDE70400FA05C6
:1018800000ED00E03EB5044600200090019002907B
:1018900002946A4600210248FFF7D8FF3EBD0000CF
:1018A0000140000070B504460D46204600F0E7FAFE
:1018B000002805D02946204600F0D0FA002070BD4F
:1018C0000520FCE70346002901D10E207047002ABD
:1018D00003D0501E1040002801D00920F6E71960FF
:1018E000501E988000209860D86000BFEEE770B569
:1018F00004460D46204600F0C2FAA188884205D869
:101900002946204600F0C9FA002070BD0420FCE7FB
:10191000F8B504460F48077821460F48FFF7C2FF85
:101920000090002F13D000200A49087001220B49B3
:101930000B4800F0C7FC054600BF2E46002E04D021
:1019400000BF3046FFF79EFF00BF00BF00BF0098FA
:10195000F8BD00000E0000206C0000200D000020EB
:1019600000000020FFB589B004460D4617463048F8
:101970000760002D02D107200DB0F0BDA88882B20B
:101980002C482968FFF79EFF064600BF002E01D0B5
:101990003046F1E700BFA88982B22748A968FFF75F
:1019A00091FF064600BF002E01D03046E4E700BF9D
:1019B0002022224901A8FEF7E7FB60690790207CFE
:1019C000002801D0012000E000206946087608A91F
:1019D0000C980870607C002801D00E2000E00020E8
:1019E00069464876E0680390A068049020680290F9
:1019F00060680190124A01A9124800F017FC0646DF
:101A000000BF002E01D03046B6E700BF00200E49CF
:101A100008702068401C002808D00A4800F08CFCA0
:101A200001220A49074800F04DFCA5E70020A3E782
:101A3000080000206C0000207C0000200C2E00001C
:101A4000D92B0000000000200E0000200D00002017
:101A500070B5044621460C48FFF749FF0546002DA6
:101A600010D10A4800F052FD00280BD10849064861
:101A7000FFF718FF002805D101220549034800F0AF
:101A8000DDFC0546284670BD7C00002000000020DB
:101A90000C00002070B505460C462068401C00284C
:101AA00005D0206800F0B7FD206800F083FD606875
:101AB000401C002803D00021606800F061FD286808
:101AC000A169052212028218516200BF617D227D48
:101AD00028680B461343052636028619F36600BFB5
:101AE00062682168286800F01FFE207D012816D159
:101AF000A068401C002803D00021A06800F040FD31
:101B0000E068401C002805D0E06800F084FDE06833
:101B100000F050FDA268E168286800F0E3FD70BDA8
:101B200010B58C0003460C331A5110BD70B5044635
:101B30002079A16888470546E0784007400F0028D3
:101B400002DD2088401C2080E078C009A8421CD01B
:101B5000E07838218843E1788906490F491CC9009B
:101B6000382211400843E0708006400F032810DB44
:101B7000E07880218843E901802211400843E07029
:101B8000E07838218843E07003E0E078382188432A
:101B9000E070E0784007400F0300FFF741FE0604C5
:101BA0002856ACFBD7FBE078C009E1784906C90F9D
:101BB000884216D1A078F0218843A070E068002800
:101BC00002D02046E168884700202080A0780009E4
:101BD0000001401CA070E078C008C000401CE0700C
:101BE00004E0A078F02188438030A070D7E0E0784E
:101BF000C009E1784906C90F884212D0A078F021C7
:101C000088431030A0702069002802D02046216946
:101C1000884700202080E078C008C000801CE07069
:101C200012E02088C8280FDDA078F02188435030CA
:101C3000A070206A002802D02046216A8847E078F8
:101C4000C008C000401DE070A9E0E078C009E1785C
:101C50004906C90F884225D1A078F0218843A07099
:101C6000E068002802D02046E1688847A078000795
:101C7000000F0F2808D0A07800090001A178491CA6
:101C80000907090F0843A0706069002802D02046A8
:101C90006169884700202080E078C008C000C01C2F
:101CA000E07027E020883C2824DDA0780007000FA2
:101CB00001280BD1A078F02188433030A070A069B2
:101CC000002813D02046A16988470FE0A0780007BC
:101CD000000F02280AD1A078F02188434030A0707C
:101CE000E069002802D02046E1698847E078C00812
:101CF000C000E07053E0E078C009E1784906C90F00
:101D000088421AD0A078F02188431030A070206952
:101D1000002802D020462169884720883C2807DA1D
:101D200000202080E078C008C000801CE0700CE03B
:101D3000E078C008C000E07007E020883C2804DD9F
:101D4000E078C008C000401CE07028E0E078C009DE
:101D5000E1784906C90F88420BD1A078F021884369
:101D60006030A070606A002812D02046616A8847FF
:101D70000EE0A078F02188431030A0702069002880
:101D800002D0204621698847E078C008C000E07092
:101D900005E0FFE7E078C008C000E07000BF00BFCA
:101DA00070BDF8B504460E4615461F462C21204648
:101DB000FEF7AAFBA078F02188438030A070A660CF
:101DC000E07880218843002D01D1012100E000212D
:101DD000C901802211400843E070E0784021884327
:101DE000A901402211400843E0702771F8BD0000AE
:101DF00001460948026805E08A4202D10020C0433A
:101E00007047926A002AF7D1034800688862024846
:101E100001600020F4E700001800002010B505481C
:101E2000046803E02046FFF781FEA46A002CF9D184
:101E300010BD00001800002010B50246FF2004E08D
:101E400013784340044CE05C521C0B464C1EA1B27C
:101E5000002BF5D110BD0000542E000070B50446D3
:101E60000D462A460021204600F00EF8A068401CCE
:101E7000A06070BD01468A68C868801A7047014634
:101E80008A68C868801A704710B583685B188488B0
:101E900023400468E35C137010BDC26883881A4055
:101EA00003689954C268521CC260704770B50446FA
:101EB0000D46E0B2FFF7CCFD204670BDF7B582B00D
:101EC00004460E46002728E0384600F0D3FB0546BE
:101ED000384600F0D5FB0190204629464258002A9A
:101EE00001D0012200E00022002A14D00198032131
:101EF0000902611849680140002901D0012100E070
:101F00000021002907D02946204600F0BEFB2846C4
:101F1000326871689047781CC7B204988742D3DB57
:101F200005B0F0BD08B500BF214800682149086030
:101F3000FFF70EFB20A0FEF76DF91E48016826A0F2
:101F4000FEF768F92AA0FEF765F92FE0FFF7BEFB60
:101F50002C4800687D21C90088421AD300202949F5
:101F6000086029480068401C274908600846016845
:101F700026A0FEF74FF90C20274908802248008848
:101F800026490880244800880988401A00B224495C
:101F900008806846FFF7BCFC002807D16846007837
:101FA000FFF756FD68460078FEF7AAFCCEE7000072
:101FB00000040040280000200A0A4D4355205374B5
:101FC0006172742072756E6E696E672D2D2D2D2DC8
:101FD0002D2D2D3E0A0000000A52657365745F5373
:101FE0006F75726365203D203078253038580000C9
:101FF0000A48616420696E697469616C697A656414
:102000002E0A0000300000202C0000200A4D4C5FFA
:10201000436E742C25642C00340000203600002010
:102020003A000020002070470020704700207047D1
:10203000002800D1704700BF00BF00BF00BF00BF35
:1020400000BF00BF00BF00BF07490968074A9142AF
:1020500000D101E000BF00BF01460139084600D0B1
:10206000EAE700BFE6E700004C0000200024F4008F
:1020700070B504460D4629462046FEF75FFB00BFBB
:10208000E106C90E012088400549086000BF00BF75
:10209000E106C90E012088400249086000BF70BDFA
:1020A00080E200E000E100E001460803020E50B2C9
:1020B000704701460803020E50B27047F8B5054656
:1020C0000C4616461F46204600F0DAFA0090002F14
:1020D00004D02868009900F0E0FA03E0286800992D
:1020E00000F0D6FA2B68A1001522920198184650EC
:1020F00000BFF8BD10B504460021206800F0DAFAF0
:10210000022120790C225043014A8018017210BD2F
:102110008C000020F8B505460E4617461C46FF22E7
:102120000132B2400123B3401A431146286800F03F
:10213000B9FA2868012149020958214301225202B3
:10214000115000BF3A4631462846069BFFF7B6FFBE
:10215000F8BD0000F7B582B004460D4620790C2189
:10216000484331494618307A002803D008273846BA
:1021700005B0F0BD0498002802D107273846F7E7DC
:102180000498306068687060002001900BE001984E
:1021900000F070FA00902068009900F076FA01983B
:1021A000401CC0B20190617901988142EFDC206847
:1021B000FFF77FFF0090E978FFF75AFF6978206802
:1021C000052212028218526852085200CB07DB0F18
:1021D0001A4305231B02C3185A6000BFA978206860
:1021E0000522120282189268920892008B079B0FB8
:1021F0001A4305231B02C3189A6000BF2978206880
:102200000522120282181269120912010B071B0F14
:102210001A4305231B02C3181A6100BF0120307244
:1022200000273846A4E700008C000020FEB50546D4
:102230000E46174628791C2148432049441800209F
:102240000290E07E002803D0082002900298FEBD94
:1022500031462846FFF71EFC6760306920606068E1
:10226000002818D0307F0190FF211D31286800F030
:1022700036FAFF214531286800F031FA1049286804
:1022800000F03EFA2868FFF70FFF00900199FFF772
:10229000EFFE00BF00BF00BF286804210522120224
:1022A0008218116000BF00BF0020E0752076A07585
:1022B0000120E0760020A0760298C8E750000020B8
:1022C00080000200FEB505460E46174628791C21FF
:1022D000484318494418002000906068002804D042
:1022E00081218900286800F006FAE07D002810D0DE
:1022F000207E00280BD06068002804D0812189004E
:10230000286800F0FDF9112001900198FEBD012020
:1023100000900098002804D1E775E660607620768A
:1023200001E0266127763A4631462846009B00F0B8
:102330001BF8EBE75000002010B5044620791C2163
:10234000484308494018807E002809D1204600F003
:1023500026FA012120791C225043024A80188176F6
:1023600010BD000050000020FFB583B00446207966
:102370001C21484330494518A87E002805D10698FD
:10238000002802D1204600F00AFA686800284AD1E5
:10239000FF214531206800F0A2F900BF00BFFF21F6
:1023A0002531206800F093F90190FF210931206860
:1023B00000F08DF90290FF214531206800F087F987
:1023C00006460298002804D1002E02D10198002868
:1023D000E5D00198002801D1002E00D007E0294661
:1023E000206800F0AAF9E87D697E8842D6DC00BF4B
:1023F0000020E8750198002803D00327384607B06D
:10240000F0BD002E02D00F273846F8E7A87E00283E
:1024100004D00021206800F084F903E00421206842
:1024200000F07FF904E081218900206800F068F95C
:1024300000273846E3E7000050000020F8B50546C5
:102440000E46174628791C21484309494418284656
:1024500000F05CF8002803D0112000900098F8BD2F
:10246000A775A6600020A082284600F003F8F6E7D2
:102470005000002070B5044620791C2148432249B1
:1024800045180026FF211D31206800F028F9082199
:10249000206800F046F92946206800F063FB686870
:1024A00000282FD115E000BFFF211D31206800F06A
:1024B0000EF9002804D1A88AFF2101318842F3D106
:1024C000A88AFF210131884203D02946206800F004
:1024D00049FBA88AA97D8842E5DBA88AFF21013152
:1024E000884201D10F260BE000BFFF211D3120687B
:1024F00000F0EDF80028F8D00C21206800F011F968
:102500000020A875304670BD5000002001460879B3
:102510001C225043044A8018807D002801D00120ED
:1025200070470020FCE7000050000020F0B500BF1D
:1025300005252D072C4655000D439E003543059E6D
:1025400036023543069E36043543860007273F0290
:10255000E719BD51F0BDF0B500BF05252D072C468C
:1025600055000D439E003543059E36023543069EB9
:1025700036043543860007273F02E719BD51F0BDF9
:102580007CB505460C4600200090234602460146D5
:1025900001902846FFF7CAFF7CBD7CB505460C4676
:1025A0000020009023460246014601902846FFF78E
:1025B000D2FF7CBD1CB504460020009003460122DA
:1025C000114601902046FFF7B1FF1CBD1CB5044623
:1025D0000020009003460122114601902046FFF79B
:1025E000BAFF1CBD00BF052109070A460121814031
:1025F00005231B02D318D96000BF7047014600BFF6
:1026000005200007024600BF001510180069C840E9
:10261000C007C00F704700BF052109070A46012106
:10262000814005231B02D318996000BF704700BF8B
:10263000052109070A460121814005231B02D31801
:10264000996000BF704710B500BF05231B071946EE
:102650001B15CB185A680123834093430524240299
:102660000C19A360012383401340052424020C1994
:10267000E36010BD01468800FF30413080B27047F2
:1026800001460120000488407047002242507047F4
:1026900003221202821891607047032212028218EC
:1026A000516070470122520212588A4301235B0293
:1026B0001A50704701224250704701460922D20148
:1026C0008A1810680922D2018A18106070470246E1
:1026D0005058002801D0012070470020FCE700225C
:1026E0004250704705231B02C318996005231B0243
:1026F000C3181A6170470322120282189160704752
:102700000322120282185160704702460320000221
:10271000101840680840002801D0012070470020B0
:10272000FCE701224250704705231B02C3185A617F
:1027300005231B02C318D960704770B505460C46C7
:10274000E07D00280AD1FF2109312846FFF7C7FFA5
:1027500000BF052000022818806970BDFF210931E3
:102760002846FFF7BCFF00BF05200002281880693B
:10277000C0B2627EE1688854607E401C607600BF13
:10278000EBE77FB504460D46164601206946087002
:102790006846057201966268216890477FBD10B552
:1027A0000446FF2125312068FFF799FFFF210931F9
:1027B0002068FFF794FF00212068FFF7B2FF10BDEB
:1027C00070B502460B46FF20002114E0555C6840BE
:1027D00008240CE080250540002D04D0450031265A
:1027E0007540E8B201E04506280E651EECB2002CEB
:1027F000F0DC4D1CA9B29942E8DB70BDF8B5354854
:1028000005680020334908600805072109024018BF
:10281000866B31480521090707221202891888634F
:102820000520000711464018406E00902A480521F7
:1028300009078918486600BF0120400627498860BB
:1028400000BF00BFC012886000BF0420FFF7F0FB8C
:10285000224800698001C00F002807D01F48006986
:102860004004C00F002801D0012422E000241227D8
:1028700019E000BF012080031849C86000BF042090
:10288000FFF7D6FB00BF012080031449886000BF1A
:102890000420FFF7CDFB114800698001C00F00281C
:1028A00001D0012403E038467F1E0028E1D100BF9B
:1028B00000BF052000070721090240188663052193
:1028C0000907072212028918009848660148056026
:1028D0002046F8BD004500400D06000000050050F0
:1028E00010B51548052109070722120289188863C7
:1028F0000521090789184866002010498860C861C9
:102900000E200F4988601920C8603320C004486237
:102910000A4838300B4908610848E4380A4951220E
:102920001201891848600120064988600520044981
:102930000860FFF763FF10BD0C0600000041004077
:102940000045004000F5014000F00140F8B50546A3
:102950000C4617463B4E002C01D10020F8BD012C3F
:1029600006D139483949512212018918486006E0D8
:102970003548083035495122120189184860012034
:102980003349486000203049EC31886001202E49ED
:102990001439086045E000BF2B48EC3080680028FF
:1029A00007D12948EC30406A002802D1701E060089
:1029B000F2D100202449EC318860002E03D0084673
:1029C000406A002814D000201F49EC314862214998
:1029D00008602149C8630520FFF72AFB01201E4932
:1029E000C86305201B490860FFF77AFF0020B5E7A0
:1029F0001848806928706D1C601EC0B2044601280A
:102A000005D1114811495122120189184860002C42
:102A100000D107E01420FFF70BFB01200A4914390D
:102A20000862B8E700BF00BF0748EC3040680028E4
:102A3000FAD000200449EC31486001200449886044
:102A400000BF8BE7204E00001440004000F0014022
:102A500000F5014000450040C04F0040F8B5044675
:102A60000E4615461F4600200090002D17DDFFF78B
:102A7000C5FE002813D060100A498860E007C00F27
:102A8000002806D03A4629463046FFF75FFF0090FF
:102A900005E03A462946304600F006F800900098D6
:102AA000F8BD000080450040F8B504460D461646C6
:102AB000274F002D01D10020F8BD20782549C8619D
:102AC000641C01202449886031E000BF2348C069AC
:102AD000002806D12148406A002802D1781E07004C
:102AE000F4D1002F03D01D48406A002813D00020E5
:102AF0001A494862174908601949C8630520FFF759
:102B000097FA01201649C863052012490860FFF7AB
:102B1000E7FE0020D0E700201049C861681EC0B25F
:102B2000050000D104E020780A49C861641CCCE7A4
:102B300000BF002E0AD00020084948600120064945
:102B4000486100BF054840680028FBD00120B3E77A
:102B5000204E000000450040004000400041004081
:102B6000C04F004070B505460C46FF211D31284678
:102B7000FFF7B5FDA18AA068465CA08A401CA08230
:102B80003046052109026918C86100BF70BD7FB5D4
:102B900004460D4600206946087068460572A06824
:102BA00001900020A07568466268216890477FBD4B
:102BB00010B504462078022804D100BF6068FEF7F3
:102BC00061FE07E02078012804D100BF6068FEF7AD
:102BD00059FE00BF10BD00007CB504460E462078AB
:102BE000002841D0012802D0022851D12DE0606890
:102BF00001782948FEF77BFE0546002D08D001200C
:102C000069460870019568462449096888470BE0C1
:102C10002148FFF72FF9002806D0002069460870E8
:102C200068461E49096888471B48FFF723F91A4977
:102C30008988884205D8012219491A48FFF742FBC2
:102C400002E001201849087023E00220694608705C
:102C5000E0680190012212491248FFF733FB6846F1
:102C60000E490968884714E010491148FEF71AFE1A
:102C7000002805D101220D490A48FFF7DFFB06E0D5
:102C8000032069460870684604490968884700E0DF
:102C900000BF00BF7CBD00006C00002008000020C9
:102CA0000D000020000000200E0000200C0000207D
:102CB0007C000020F0B585B005460C460121490294
:102CC0002846FFF722FD00282BD0FF21253128467A
:102CD000FFF7FDFC002824D0FF2125312846FFF70F
:102CE000FEFC812189002846FFF705FDA07E002813
:102CF00003D104212846FFF714FD0220694608701D
:102D00002846FFF7DAFC0390E17D68460172E0682F
:102D100001900020E075207668466268216890473F
:102D200039E004212846FFF7F0FC002833D0FF21CA
:102D300009312846FFF7CBFC00282CD02146284635
:102D4000FFF7FBFCE07D617E884224D1207E0028D5
:102D50000ED0E668677E207EE0752069E060002086
:102D600020766076324639462046FFF70AFD12E0AB
:102D7000A07E002803D104212846FFF7D2FC812140
:102D800089002846FFF7B7FC0020E075617EE26805
:102D90002046FFF7F6FCFF211D312846FFF797FC80
:102DA000002814D0A08AA17D884204DA2146284652
:102DB000FFF7D8FE0BE0FF211D312846FFF78FFCFF
:102DC000A07D002803D0A17D2046FFF7E0FEFF2173
:102DD00045312846FFF77BFC002815D0FF214531FF
:102DE0002846FFF77CFCA07E002803D0002128465F
:102DF000FFF797FCE07D002806D00020E075617E9B
:102E0000E2682046FFF7BDFC05B0F0BDFFFFFFFF05
:102E1000FFFFFFFFFFFFFFFFFFFFFFFF00000000BE
:102E20000000000000E0D701030000000080004027
:102E30000000000000000003000000000B00000084
:102E4000090000000A000000080000000000000067
:102E500000E0D70100316253C4F5A697B988DBEAD8
:102E60007D4C1F2E4372211087B6E5D4FACB98A96A
:102E70003E0F5C6D86B7E4D5427320113F0E5D6C4A
:102E8000FBCA99A8C5F4A796013063527C4D1E2F4A
:102E9000B889DAEB3D0C5F6EF9C89BAA84B5E6D71A
:102EA000407122137E4F1C2DBA8BD8E9C7F6A5942A
:102EB00003326150BB8AD9E87F4E1D2C023360512A
:102EC000C6F7A495F8C99AAB3C0D5E6F417023120A
:102ED00085B4E7D67A4B1829BE8FDCEDC3F2A190FA
:102EE0000736655439085B6AFDCC9FAE80B1E2D3EA
:102EF00044752617FCCD9EAF38095A6B45742716CA
:102F000081B0E3D2BF8EDDEC7B4A192806376455C9
:102F1000C2F3A0914776251483B2E1D0FECF9CADD9
:102F20003A0B586904356657C0F1A293BD8CDFEEA9
:102F300079481B2AC1F0A3920534675678491A2BA9
:102F4000BC8DDEEF82B3E0D1467724153B0A596889
:102F5000FFCE9DAC303132333435363738394142CB
:102F600043444546403058003031323334353637EB
:102F70003839616263646566403078000400000897
:102F8000000000000000000200010000100000002E
:102F9000B02F0000000000205000000004010000DD
:102FA0000030000050000020C81300002001000085
:102FB00000200040000000000000000000000000B1
:102FC00000000000000000000000000014190102D1
:102FD00015020102030304040000000000000000C9
:102FE00000000000000000007C0000000000000065
:102FF0000000000000000000000000000024F400B9
:04000005000000C136
:00000001FF
